{
  "contractName": "infecDisInfo",
  "abi": [
    {
      "inputs": [],
      "payable": false,
      "stateMutability": "nonpayable",
      "type": "constructor"
    },
    {
      "anonymous": false,
      "inputs": [
        {
          "indexed": true,
          "internalType": "address",
          "name": "senderAddress",
          "type": "address"
        },
        {
          "indexed": true,
          "internalType": "address",
          "name": "destinationAddr",
          "type": "address"
        }
      ],
      "name": "AccessGranted",
      "type": "event"
    },
    {
      "anonymous": false,
      "inputs": [
        {
          "indexed": true,
          "internalType": "address",
          "name": "senderAddress",
          "type": "address"
        },
        {
          "indexed": true,
          "internalType": "address",
          "name": "destinationAddr",
          "type": "address"
        }
      ],
      "name": "AdminAccessRevoked",
      "type": "event"
    },
    {
      "anonymous": false,
      "inputs": [
        {
          "indexed": true,
          "internalType": "address",
          "name": "senderAddress",
          "type": "address"
        },
        {
          "indexed": false,
          "internalType": "string",
          "name": "name",
          "type": "string"
        }
      ],
      "name": "DocterRegistered",
      "type": "event"
    },
    {
      "anonymous": false,
      "inputs": [
        {
          "indexed": true,
          "internalType": "address",
          "name": "senderAddress",
          "type": "address"
        },
        {
          "indexed": true,
          "internalType": "address",
          "name": "destinationAddr",
          "type": "address"
        }
      ],
      "name": "DocterRemoved",
      "type": "event"
    },
    {
      "anonymous": false,
      "inputs": [
        {
          "indexed": true,
          "internalType": "address",
          "name": "senderAddress",
          "type": "address"
        },
        {
          "indexed": false,
          "internalType": "string",
          "name": "name",
          "type": "string"
        }
      ],
      "name": "InstitutionRegistered",
      "type": "event"
    },
    {
      "anonymous": false,
      "inputs": [
        {
          "indexed": true,
          "internalType": "address",
          "name": "senderAddress",
          "type": "address"
        },
        {
          "indexed": true,
          "internalType": "address",
          "name": "destinationAddr",
          "type": "address"
        }
      ],
      "name": "InstitutionRemoved",
      "type": "event"
    },
    {
      "anonymous": false,
      "inputs": [
        {
          "indexed": true,
          "internalType": "address",
          "name": "senderAddress",
          "type": "address"
        },
        {
          "indexed": false,
          "internalType": "string",
          "name": "name",
          "type": "string"
        }
      ],
      "name": "PatientRegistered",
      "type": "event"
    },
    {
      "anonymous": false,
      "inputs": [
        {
          "indexed": true,
          "internalType": "address",
          "name": "senderAddress",
          "type": "address"
        },
        {
          "indexed": true,
          "internalType": "address",
          "name": "destinationAddr",
          "type": "address"
        }
      ],
      "name": "PatientRemoved",
      "type": "event"
    },
    {
      "anonymous": false,
      "inputs": [
        {
          "indexed": true,
          "internalType": "address",
          "name": "senderAddress",
          "type": "address"
        },
        {
          "indexed": true,
          "internalType": "address",
          "name": "destinationAddr",
          "type": "address"
        }
      ],
      "name": "PatientRevokeAccess",
      "type": "event"
    },
    {
      "anonymous": false,
      "inputs": [
        {
          "indexed": true,
          "internalType": "address",
          "name": "senderAddress",
          "type": "address"
        },
        {
          "indexed": false,
          "internalType": "string",
          "name": "fileHash",
          "type": "string"
        }
      ],
      "name": "RecordUploaded",
      "type": "event"
    },
    {
      "anonymous": false,
      "inputs": [
        {
          "indexed": true,
          "internalType": "address",
          "name": "senderAddress",
          "type": "address"
        }
      ],
      "name": "UserRemoveAccount",
      "type": "event"
    },
    {
      "anonymous": false,
      "inputs": [
        {
          "indexed": true,
          "internalType": "address",
          "name": "senderAddress",
          "type": "address"
        }
      ],
      "name": "UserRemoveInfoRecords",
      "type": "event"
    },
    {
      "constant": true,
      "inputs": [
        {
          "internalType": "uint256",
          "name": "",
          "type": "uint256"
        }
      ],
      "name": "docterList",
      "outputs": [
        {
          "internalType": "address",
          "name": "",
          "type": "address"
        }
      ],
      "payable": false,
      "stateMutability": "view",
      "type": "function"
    },
    {
      "constant": true,
      "inputs": [
        {
          "internalType": "uint256",
          "name": "",
          "type": "uint256"
        }
      ],
      "name": "institutionList",
      "outputs": [
        {
          "internalType": "address",
          "name": "",
          "type": "address"
        }
      ],
      "payable": false,
      "stateMutability": "view",
      "type": "function"
    },
    {
      "constant": true,
      "inputs": [
        {
          "internalType": "address",
          "name": "",
          "type": "address"
        }
      ],
      "name": "isAdmin",
      "outputs": [
        {
          "internalType": "bool",
          "name": "",
          "type": "bool"
        }
      ],
      "payable": false,
      "stateMutability": "view",
      "type": "function"
    },
    {
      "constant": true,
      "inputs": [
        {
          "internalType": "uint256",
          "name": "",
          "type": "uint256"
        }
      ],
      "name": "patientList",
      "outputs": [
        {
          "internalType": "address",
          "name": "",
          "type": "address"
        }
      ],
      "payable": false,
      "stateMutability": "view",
      "type": "function"
    },
    {
      "constant": false,
      "inputs": [
        {
          "internalType": "string",
          "name": "_regisName",
          "type": "string"
        },
        {
          "internalType": "uint256",
          "name": "_regisContactNum",
          "type": "uint256"
        },
        {
          "internalType": "uint256",
          "name": "_regisType",
          "type": "uint256"
        },
        {
          "internalType": "string",
          "name": "_fileHash",
          "type": "string"
        }
      ],
      "name": "register",
      "outputs": [],
      "payable": false,
      "stateMutability": "nonpayable",
      "type": "function"
    },
    {
      "constant": false,
      "inputs": [
        {
          "internalType": "string",
          "name": "_regisName",
          "type": "string"
        },
        {
          "internalType": "uint256",
          "name": "_regisContactNum",
          "type": "uint256"
        },
        {
          "internalType": "string",
          "name": "_fileHash",
          "type": "string"
        }
      ],
      "name": "addPatient",
      "outputs": [],
      "payable": false,
      "stateMutability": "nonpayable",
      "type": "function"
    },
    {
      "constant": false,
      "inputs": [
        {
          "internalType": "string",
          "name": "_regisName",
          "type": "string"
        },
        {
          "internalType": "uint256",
          "name": "_regisContactNum",
          "type": "uint256"
        }
      ],
      "name": "addDocter",
      "outputs": [],
      "payable": false,
      "stateMutability": "nonpayable",
      "type": "function"
    },
    {
      "constant": false,
      "inputs": [
        {
          "internalType": "string",
          "name": "_regisName",
          "type": "string"
        },
        {
          "internalType": "uint256",
          "name": "_regisContactNum",
          "type": "uint256"
        }
      ],
      "name": "addInstitution",
      "outputs": [],
      "payable": false,
      "stateMutability": "nonpayable",
      "type": "function"
    },
    {
      "constant": false,
      "inputs": [
        {
          "internalType": "address",
          "name": "senderAddress",
          "type": "address"
        },
        {
          "internalType": "address",
          "name": "_addAdminAddress",
          "type": "address"
        }
      ],
      "name": "addAdmin",
      "outputs": [],
      "payable": false,
      "stateMutability": "nonpayable",
      "type": "function"
    },
    {
      "constant": true,
      "inputs": [
        {
          "internalType": "address",
          "name": "patientAddr",
          "type": "address"
        }
      ],
      "name": "getPatientInfo",
      "outputs": [
        {
          "internalType": "string",
          "name": "",
          "type": "string"
        },
        {
          "internalType": "uint256",
          "name": "",
          "type": "uint256"
        },
        {
          "internalType": "string",
          "name": "",
          "type": "string"
        }
      ],
      "payable": false,
      "stateMutability": "view",
      "type": "function"
    },
    {
      "constant": true,
      "inputs": [
        {
          "internalType": "address",
          "name": "patientAddr",
          "type": "address"
        }
      ],
      "name": "getPatientInfoDoc",
      "outputs": [
        {
          "internalType": "string",
          "name": "",
          "type": "string"
        },
        {
          "internalType": "uint256",
          "name": "",
          "type": "uint256"
        },
        {
          "internalType": "string",
          "name": "",
          "type": "string"
        }
      ],
      "payable": false,
      "stateMutability": "view",
      "type": "function"
    },
    {
      "constant": true,
      "inputs": [
        {
          "internalType": "address",
          "name": "docterAddr",
          "type": "address"
        }
      ],
      "name": "getDocterInfo",
      "outputs": [
        {
          "internalType": "string",
          "name": "",
          "type": "string"
        },
        {
          "internalType": "uint256",
          "name": "",
          "type": "uint256"
        }
      ],
      "payable": false,
      "stateMutability": "view",
      "type": "function"
    },
    {
      "constant": false,
      "inputs": [
        {
          "internalType": "address",
          "name": "docterAddr",
          "type": "address"
        }
      ],
      "name": "accessPermitGrant",
      "outputs": [],
      "payable": false,
      "stateMutability": "nonpayable",
      "type": "function"
    },
    {
      "constant": true,
      "inputs": [],
      "name": "getPatientList",
      "outputs": [
        {
          "internalType": "address[]",
          "name": "",
          "type": "address[]"
        }
      ],
      "payable": false,
      "stateMutability": "view",
      "type": "function"
    },
    {
      "constant": true,
      "inputs": [],
      "name": "getDocterList",
      "outputs": [
        {
          "internalType": "address[]",
          "name": "",
          "type": "address[]"
        }
      ],
      "payable": false,
      "stateMutability": "view",
      "type": "function"
    },
    {
      "constant": false,
      "inputs": [
        {
          "internalType": "address",
          "name": "patientAddr",
          "type": "address"
        },
        {
          "internalType": "string",
          "name": "_fileHash",
          "type": "string"
        }
      ],
      "name": "recordUpload",
      "outputs": [],
      "payable": false,
      "stateMutability": "nonpayable",
      "type": "function"
    },
    {
      "constant": true,
      "inputs": [
        {
          "internalType": "address",
          "name": "patientAddr",
          "type": "address"
        }
      ],
      "name": "getFileHash",
      "outputs": [
        {
          "internalType": "string",
          "name": "",
          "type": "string"
        }
      ],
      "payable": false,
      "stateMutability": "view",
      "type": "function"
    },
    {
      "constant": false,
      "inputs": [
        {
          "internalType": "address",
          "name": "patientAddr",
          "type": "address"
        },
        {
          "internalType": "string",
          "name": "_filehash",
          "type": "string"
        }
      ],
      "name": "setFileHash",
      "outputs": [],
      "payable": false,
      "stateMutability": "nonpayable",
      "type": "function"
    },
    {
      "constant": false,
      "inputs": [
        {
          "internalType": "address",
          "name": "patientAddr",
          "type": "address"
        },
        {
          "internalType": "address",
          "name": "docterAddr",
          "type": "address"
        }
      ],
      "name": "accessPermitRevoke",
      "outputs": [],
      "payable": false,
      "stateMutability": "nonpayable",
      "type": "function"
    },
    {
      "constant": false,
      "inputs": [
        {
          "internalType": "address",
          "name": "docterAddr",
          "type": "address"
        }
      ],
      "name": "accessPermitRevokeForPatient",
      "outputs": [],
      "payable": false,
      "stateMutability": "nonpayable",
      "type": "function"
    },
    {
      "constant": true,
      "inputs": [
        {
          "internalType": "address",
          "name": "patientAddr",
          "type": "address"
        }
      ],
      "name": "patientAccessPermitCheck",
      "outputs": [
        {
          "internalType": "address[]",
          "name": "",
          "type": "address[]"
        }
      ],
      "payable": false,
      "stateMutability": "view",
      "type": "function"
    },
    {
      "constant": true,
      "inputs": [
        {
          "internalType": "address",
          "name": "docterAddr",
          "type": "address"
        }
      ],
      "name": "docterAccessPermitCheck",
      "outputs": [
        {
          "internalType": "address[]",
          "name": "",
          "type": "address[]"
        }
      ],
      "payable": false,
      "stateMutability": "view",
      "type": "function"
    },
    {
      "constant": true,
      "inputs": [],
      "name": "contractTestGetNumber",
      "outputs": [
        {
          "internalType": "uint256",
          "name": "",
          "type": "uint256"
        }
      ],
      "payable": false,
      "stateMutability": "view",
      "type": "function"
    },
    {
      "constant": true,
      "inputs": [],
      "name": "getAllPatientsRecordsForInstitution",
      "outputs": [
        {
          "internalType": "address[]",
          "name": "",
          "type": "address[]"
        },
        {
          "internalType": "string[]",
          "name": "",
          "type": "string[]"
        }
      ],
      "payable": false,
      "stateMutability": "view",
      "type": "function"
    },
    {
      "constant": true,
      "inputs": [],
      "name": "getInstitutionList",
      "outputs": [
        {
          "internalType": "address[]",
          "name": "",
          "type": "address[]"
        }
      ],
      "payable": false,
      "stateMutability": "view",
      "type": "function"
    },
    {
      "constant": true,
      "inputs": [],
      "name": "getAdminsList",
      "outputs": [
        {
          "internalType": "address[]",
          "name": "",
          "type": "address[]"
        }
      ],
      "payable": false,
      "stateMutability": "view",
      "type": "function"
    },
    {
      "constant": true,
      "inputs": [
        {
          "internalType": "address",
          "name": "institutionAddr",
          "type": "address"
        }
      ],
      "name": "getInstitutionInfo",
      "outputs": [
        {
          "internalType": "string",
          "name": "",
          "type": "string"
        },
        {
          "internalType": "uint256",
          "name": "",
          "type": "uint256"
        }
      ],
      "payable": false,
      "stateMutability": "view",
      "type": "function"
    },
    {
      "constant": false,
      "inputs": [
        {
          "internalType": "address",
          "name": "_senderAddr",
          "type": "address"
        },
        {
          "internalType": "string",
          "name": "_key",
          "type": "string"
        }
      ],
      "name": "storeKey",
      "outputs": [],
      "payable": false,
      "stateMutability": "nonpayable",
      "type": "function"
    },
    {
      "constant": true,
      "inputs": [
        {
          "internalType": "address",
          "name": "_senderAddr",
          "type": "address"
        },
        {
          "internalType": "address",
          "name": "_destinationAddr",
          "type": "address"
        }
      ],
      "name": "retrieveKey",
      "outputs": [
        {
          "internalType": "string",
          "name": "",
          "type": "string"
        }
      ],
      "payable": false,
      "stateMutability": "view",
      "type": "function"
    },
    {
      "constant": true,
      "inputs": [
        {
          "internalType": "address",
          "name": "senderAddr",
          "type": "address"
        },
        {
          "internalType": "address",
          "name": "destinationAddr",
          "type": "address"
        }
      ],
      "name": "checkAccessPermission",
      "outputs": [
        {
          "internalType": "bool",
          "name": "",
          "type": "bool"
        }
      ],
      "payable": false,
      "stateMutability": "view",
      "type": "function"
    },
    {
      "constant": false,
      "inputs": [
        {
          "internalType": "address",
          "name": "senderAddress",
          "type": "address"
        }
      ],
      "name": "getAllAccounts",
      "outputs": [
        {
          "internalType": "address[]",
          "name": "patients",
          "type": "address[]"
        },
        {
          "internalType": "address[]",
          "name": "doctors",
          "type": "address[]"
        },
        {
          "internalType": "address[]",
          "name": "institutions",
          "type": "address[]"
        }
      ],
      "payable": false,
      "stateMutability": "nonpayable",
      "type": "function"
    },
    {
      "constant": false,
      "inputs": [
        {
          "internalType": "address",
          "name": "senderAddress",
          "type": "address"
        },
        {
          "internalType": "address",
          "name": "patientAddr",
          "type": "address"
        }
      ],
      "name": "removePatient",
      "outputs": [],
      "payable": false,
      "stateMutability": "nonpayable",
      "type": "function"
    },
    {
      "constant": false,
      "inputs": [
        {
          "internalType": "address",
          "name": "senderAddress",
          "type": "address"
        },
        {
          "internalType": "address",
          "name": "doctorAddr",
          "type": "address"
        }
      ],
      "name": "removeDoctor",
      "outputs": [],
      "payable": false,
      "stateMutability": "nonpayable",
      "type": "function"
    },
    {
      "constant": false,
      "inputs": [
        {
          "internalType": "address",
          "name": "senderAddress",
          "type": "address"
        },
        {
          "internalType": "address",
          "name": "institutionAddr",
          "type": "address"
        }
      ],
      "name": "removeInstitution",
      "outputs": [],
      "payable": false,
      "stateMutability": "nonpayable",
      "type": "function"
    },
    {
      "constant": true,
      "inputs": [],
      "name": "getAdmins",
      "outputs": [
        {
          "internalType": "address[]",
          "name": "",
          "type": "address[]"
        }
      ],
      "payable": false,
      "stateMutability": "view",
      "type": "function"
    },
    {
      "constant": true,
      "inputs": [
        {
          "internalType": "address",
          "name": "userAddress",
          "type": "address"
        }
      ],
      "name": "isAddressAdmin",
      "outputs": [
        {
          "internalType": "bool",
          "name": "",
          "type": "bool"
        }
      ],
      "payable": false,
      "stateMutability": "view",
      "type": "function"
    },
    {
      "constant": false,
      "inputs": [],
      "name": "removeSelf",
      "outputs": [],
      "payable": false,
      "stateMutability": "nonpayable",
      "type": "function"
    },
    {
      "constant": false,
      "inputs": [],
      "name": "deleteInfoRecords",
      "outputs": [],
      "payable": false,
      "stateMutability": "nonpayable",
      "type": "function"
    }
  ],
  "bytecode": "0x608060405234801561001057600080fd5b506007734fe2f250c9e4e9e6afbe310dd18f2b02df8cad8890806001815401808255809150509060018203906000526020600020016000909192909190916101000a81548173ffffffffffffffffffffffffffffffffffffffff021916908373ffffffffffffffffffffffffffffffffffffffff16021790555050600160086000734fe2f250c9e4e9e6afbe310dd18f2b02df8cad8873ffffffffffffffffffffffffffffffffffffffff1673ffffffffffffffffffffffffffffffffffffffff16815260200190815260200160002060006101000a81548160ff0219169083151502179055506150ac806101066000396000f3fe608060405234801561001057600080fd5b50600436106102325760003560e01c80637e5c92ed11610130578063cad0bf9e116100b8578063ebc26ac81161007c578063ebc26ac8146106d9578063f021278c14610709578063f0ddb71f14610727578063f1f4570114610743578063f7d5d4421461076257610232565b8063cad0bf9e14610625578063cdfebe8114610641578063ce5b638f14610671578063d65da44a146106a1578063e48d3452146106bd57610232565b806391ace054116100ff57806391ace054146105455780639d64b4a014610563578063aa7f317714610595578063babb1d41146105c5578063c3f518f9146105f557610232565b80637e5c92ed146104d557806384e33fbe146104f15780638a19b4d21461050d5780638bfd135f1461052957610232565b80634c9c0c4c116101be57806353a5711b1161018257806353a5711b1461041e5780635e898dac1461044e57806373c00ff414610458578063748c8d82146104885780637cbba3b4146104a457610232565b80634c9c0c4c146103655780634f72e15714610395578063503b1354146103b357806351d1df47146103d15780635338a70f1461040257610232565b80632d404cdf116102055780632d404cdf146102bd57806331ae450b146102c75780633b77f3d9146102e557806345a2db5c146103015780634b4261781461033357610232565b806318180366146102375780631aeae039146102555780631bc440091461027157806324d7806c1461028d575b600080fd5b61023f61077e565b60405161024c9190614beb565b60405180910390f35b61026f600480360361026a9190810190614614565b61080c565b005b61028b600480360361028691908101906146e7565b6109a8565b005b6102a760048036036102a2919081019061455b565b610afb565b6040516102b49190614c90565b60405180910390f35b6102c5610b1b565b005b6102cf610c4c565b6040516102dc9190614beb565b60405180910390f35b6102ff60048036036102fa919081019061455b565b610cda565b005b61031b6004803603610316919081019061455b565b610eaf565b60405161032a93929190614c0d565b60405180910390f35b61034d6004803603610348919081019061455b565b6110a7565b60405161035c93929190614cfd565b60405180910390f35b61037f600480360361037a9190810190614584565b611329565b60405161038c9190614c90565b60405180910390f35b61039d6115ea565b6040516103aa9190614e82565b60405180910390f35b6103bb6115f3565b6040516103c89190614beb565b60405180910390f35b6103eb60048036036103e6919081019061455b565b611681565b6040516103f9929190614ccd565b60405180910390f35b61041c600480360361041791908101906145c0565b61181e565b005b6104386004803603610433919081019061477a565b611a18565b6040516104459190614bd0565b60405180910390f35b610456611a54565b005b610472600480360361046d919081019061455b565b611e59565b60405161047f9190614cab565b60405180910390f35b6104a2600480360361049d9190810190614614565b611f3d565b005b6104be60048036036104b9919081019061455b565b6120f6565b6040516104cc929190614ccd565b60405180910390f35b6104ef60048036036104ea9190810190614584565b612293565b005b61050b60048036036105069190810190614584565b612575565b005b61052760048036036105229190810190614584565b612847565b005b610543600480360361053e9190810190614584565b6129a9565b005b61054d612e10565b60405161055a9190614beb565b60405180910390f35b61057d6004803603610578919081019061455b565b612e9e565b60405161058c93929190614cfd565b60405180910390f35b6105af60048036036105aa919081019061455b565b61324e565b6040516105bc9190614c90565b60405180910390f35b6105df60048036036105da919081019061477a565b6132a4565b6040516105ec9190614bd0565b60405180910390f35b61060f600480360361060a919081019061455b565b6132e0565b60405161061c9190614beb565b60405180910390f35b61063f600480360361063a91908101906145c0565b6133b6565b005b61065b6004803603610656919081019061455b565b61347d565b6040516106689190614beb565b60405180910390f35b61068b60048036036106869190810190614584565b613553565b6040516106989190614cab565b60405180910390f35b6106bb60048036036106b69190810190614668565b61367d565b005b6106d760048036036106d29190810190614584565b61385d565b005b6106f360048036036106ee919081019061477a565b613a33565b6040516107009190614bd0565b60405180910390f35b610711613a6f565b60405161071e9190614beb565b60405180910390f35b610741600480360361073c91908101906145c0565b613afd565b005b61074b613b58565b604051610759929190614c59565b60405180910390f35b61077c6004803603610777919081019061455b565b613d77565b005b6060600780548060200260200160405190810160405280929190818152602001828054801561080257602002820191906000526020600020905b8160009054906101000a900473ffffffffffffffffffffffffffffffffffffffff1673ffffffffffffffffffffffffffffffffffffffff16815260200190600101908083116107b8575b5050505050905090565b60003390506108196141c7565b8381600001819052508281602001818152505080600560008473ffffffffffffffffffffffffffffffffffffffff1673ffffffffffffffffffffffffffffffffffffffff16815260200190815260200160002060008201518160000190805190602001906108889291906141e1565b506020820151816001015590505060068290806001815401808255809150509060018203906000526020600020016000909192909190916101000a81548173ffffffffffffffffffffffffffffffffffffffff021916908373ffffffffffffffffffffffffffffffffffffffff160217905550506001600960008473ffffffffffffffffffffffffffffffffffffffff1673ffffffffffffffffffffffffffffffffffffffff16815260200190815260200160002060006101000a81548160ff0219169083151502179055508173ffffffffffffffffffffffffffffffffffffffff167f73a52c071d4a02996481449bf1ad04d8f24559a7ec51210c4ec5e43d3baee8818560405161099a9190614cab565b60405180910390a250505050565b600073ffffffffffffffffffffffffffffffffffffffff163373ffffffffffffffffffffffffffffffffffffffff161415610a18576040517f08c379a0000000000000000000000000000000000000000000000000000000008152600401610a0f90614d42565b60405180910390fd5b600960003373ffffffffffffffffffffffffffffffffffffffff1673ffffffffffffffffffffffffffffffffffffffff16815260200190815260200160002060009054906101000a900460ff1615610aa5576040517f08c379a0000000000000000000000000000000000000000000000000000000008152600401610a9c90614da2565b60405180910390fd5b6000821415610abe57610ab984848361367d565b610af5565b6001821415610ad657610ad18484611f3d565b610af4565b6002821415610aee57610ae9848461080c565b610af3565b600080fd5b5b5b50505050565b60086020528060005260406000206000915054906101000a900460ff1681565b6000600160003373ffffffffffffffffffffffffffffffffffffffff1673ffffffffffffffffffffffffffffffffffffffff168152602001908152602001600020600101541415610ba1576040517f08c379a0000000000000000000000000000000000000000000000000000000008152600401610b9890614e22565b60405180910390fd5b60405180602001604052806000815250600160003373ffffffffffffffffffffffffffffffffffffffff1673ffffffffffffffffffffffffffffffffffffffff1681526020019081526020016000206003019080519060200190610c06929190614261565b503373ffffffffffffffffffffffffffffffffffffffff167fca1e6e7765c304c5110d6fb170e1defb34869b866338fd15419d10cbf9dd8e1960405160405180910390a2565b60606007805480602002602001604051908101604052809291908181526020018280548015610cd057602002820191906000526020600020905b8160009054906101000a900473ffffffffffffffffffffffffffffffffffffffff1673ffffffffffffffffffffffffffffffffffffffff1681526020019060010190808311610c86575b5050505050905090565b600073ffffffffffffffffffffffffffffffffffffffff163373ffffffffffffffffffffffffffffffffffffffff161415610d4a576040517f08c379a0000000000000000000000000000000000000000000000000000000008152600401610d4190614d42565b60405180910390fd5b600073ffffffffffffffffffffffffffffffffffffffff168173ffffffffffffffffffffffffffffffffffffffff161415610dba576040517f08c379a0000000000000000000000000000000000000000000000000000000008152600401610db190614d42565b60405180910390fd5b610e05600260008373ffffffffffffffffffffffffffffffffffffffff1673ffffffffffffffffffffffffffffffffffffffff16815260200190815260200160002060020133613f90565b50610e51600160003373ffffffffffffffffffffffffffffffffffffffff1673ffffffffffffffffffffffffffffffffffffffff16815260200190815260200160002060020182613f90565b508073ffffffffffffffffffffffffffffffffffffffff163373ffffffffffffffffffffffffffffffffffffffff167f7cf061d54ea37b515b1dde7e223e8f139cf782306bf374ee7f3ecc81aefe964560405160405180910390a350565b6060806060610ebd8461324e565b610efc576040517f08c379a0000000000000000000000000000000000000000000000000000000008152600401610ef390614de2565b60405180910390fd5b60036004600682805480602002602001604051908101604052809291908181526020018280548015610f8357602002820191906000526020600020905b8160009054906101000a900473ffffffffffffffffffffffffffffffffffffffff1673ffffffffffffffffffffffffffffffffffffffff1681526020019060010190808311610f39575b505050505092508180548060200260200160405190810160405280929190818152602001828054801561100b57602002820191906000526020600020905b8160009054906101000a900473ffffffffffffffffffffffffffffffffffffffff1673ffffffffffffffffffffffffffffffffffffffff1681526020019060010190808311610fc1575b505050505091508080548060200260200160405190810160405280929190818152602001828054801561109357602002820191906000526020600020905b8160009054906101000a900473ffffffffffffffffffffffffffffffffffffffff1673ffffffffffffffffffffffffffffffffffffffff1681526020019060010190808311611049575b505050505090509250925092509193909250565b606060006060600073ffffffffffffffffffffffffffffffffffffffff168473ffffffffffffffffffffffffffffffffffffffff16141561111d576040517f08c379a000000000000000000000000000000000000000000000000000000000815260040161111490614d42565b60405180910390fd5b600160008573ffffffffffffffffffffffffffffffffffffffff1673ffffffffffffffffffffffffffffffffffffffff168152602001908152602001600020600001600160008673ffffffffffffffffffffffffffffffffffffffff1673ffffffffffffffffffffffffffffffffffffffff16815260200190815260200160002060010154600160008773ffffffffffffffffffffffffffffffffffffffff1673ffffffffffffffffffffffffffffffffffffffff168152602001908152602001600020600301828054600181600116156101000203166002900480601f0160208091040260200160405190810160405280929190818152602001828054600181600116156101000203166002900480156112795780601f1061124e57610100808354040283529160200191611279565b820191906000526020600020905b81548152906001019060200180831161125c57829003601f168201915b50505050509250808054600181600116156101000203166002900480601f0160208091040260200160405190810160405280929190818152602001828054600181600116156101000203166002900480156113155780601f106112ea57610100808354040283529160200191611315565b820191906000526020600020905b8154815290600101906020018083116112f857829003601f168201915b505050505090509250925092509193909250565b60008073ffffffffffffffffffffffffffffffffffffffff168273ffffffffffffffffffffffffffffffffffffffff16141561139a576040517f08c379a000000000000000000000000000000000000000000000000000000000815260040161139190614dc2565b60405180910390fd5b600073ffffffffffffffffffffffffffffffffffffffff168373ffffffffffffffffffffffffffffffffffffffff16141561140a576040517f08c379a000000000000000000000000000000000000000000000000000000000815260040161140190614e42565b60405180910390fd5b6060600160008473ffffffffffffffffffffffffffffffffffffffff1673ffffffffffffffffffffffffffffffffffffffff1681526020019081526020016000206002018054806020026020016040519081016040528092919081815260200182805480156114ce57602002820191906000526020600020905b8160009054906101000a900473ffffffffffffffffffffffffffffffffffffffff1673ffffffffffffffffffffffffffffffffffffffff1681526020019060010190808311611484575b5050505050905060008090505b8151811015611543578473ffffffffffffffffffffffffffffffffffffffff1682828151811061150757fe5b602002602001015173ffffffffffffffffffffffffffffffffffffffff161415611536576001925050506115e4565b80806001019150506114db565b50600860008573ffffffffffffffffffffffffffffffffffffffff1673ffffffffffffffffffffffffffffffffffffffff16815260200190815260200160002060009054906101000a900460ff16156115a05760019150506115e4565b8273ffffffffffffffffffffffffffffffffffffffff168473ffffffffffffffffffffffffffffffffffffffff1614156115de5760019150506115e4565b60009150505b92915050565b60006008905090565b6060600380548060200260200160405190810160405280929190818152602001828054801561167757602002820191906000526020600020905b8160009054906101000a900473ffffffffffffffffffffffffffffffffffffffff1673ffffffffffffffffffffffffffffffffffffffff168152602001906001019080831161162d575b5050505050905090565b606060008073ffffffffffffffffffffffffffffffffffffffff168373ffffffffffffffffffffffffffffffffffffffff1614156116f4576040517f08c379a00000000000000000000000000000000000000000000000000000000081526004016116eb90614d42565b60405180910390fd5b600560008473ffffffffffffffffffffffffffffffffffffffff1673ffffffffffffffffffffffffffffffffffffffff168152602001908152602001600020600001600560008573ffffffffffffffffffffffffffffffffffffffff1673ffffffffffffffffffffffffffffffffffffffff16815260200190815260200160002060010154818054600181600116156101000203166002900480601f01602080910402602001604051908101604052809291908181526020018280546001816001161561010002031660029004801561180e5780601f106117e35761010080835404028352916020019161180e565b820191906000526020600020905b8154815290600101906020018083116117f157829003601f168201915b5050505050915091509150915091565b600073ffffffffffffffffffffffffffffffffffffffff168273ffffffffffffffffffffffffffffffffffffffff16141561188e576040517f08c379a000000000000000000000000000000000000000000000000000000000815260040161188590614d42565b60405180910390fd5b600080905060008090505b600260003373ffffffffffffffffffffffffffffffffffffffff1673ffffffffffffffffffffffffffffffffffffffff168152602001908152602001600020600201805490508110156119a3578373ffffffffffffffffffffffffffffffffffffffff16600260003373ffffffffffffffffffffffffffffffffffffffff1673ffffffffffffffffffffffffffffffffffffffff168152602001908152602001600020600201828154811061194a57fe5b9060005260206000200160009054906101000a900473ffffffffffffffffffffffffffffffffffffffff1673ffffffffffffffffffffffffffffffffffffffff16141561199657600191505b8080600101915050611899565b50600115158115151415611a0e578273ffffffffffffffffffffffffffffffffffffffff167f01b64c1967d10407b4ff97725353edea760930f8e25d265e786a16eecbe4d7f7836040516119f79190614cab565b60405180910390a2611a098383613afd565b611a13565b600080fd5b505050565b60048181548110611a2557fe5b906000526020600020016000915054906101000a900473ffffffffffffffffffffffffffffffffffffffff1681565b6000600160003373ffffffffffffffffffffffffffffffffffffffff1673ffffffffffffffffffffffffffffffffffffffff168152602001908152602001600020600101541415611ada576040517f08c379a0000000000000000000000000000000000000000000000000000000008152600401611ad190614e22565b60405180910390fd5b60008090505b600380549050811015611c25573373ffffffffffffffffffffffffffffffffffffffff1660038281548110611b1157fe5b9060005260206000200160009054906101000a900473ffffffffffffffffffffffffffffffffffffffff1673ffffffffffffffffffffffffffffffffffffffff161415611c18576001600380549050038114611bfd57600360016003805490500381548110611b7c57fe5b9060005260206000200160009054906101000a900473ffffffffffffffffffffffffffffffffffffffff1660038281548110611bb457fe5b9060005260206000200160006101000a81548173ffffffffffffffffffffffffffffffffffffffff021916908373ffffffffffffffffffffffffffffffffffffffff1602179055505b6003805480919060019003611c1291906142e1565b50611c25565b8080600101915050611ae0565b5060008090505b600480549050811015611d9957600060048281548110611c4857fe5b9060005260206000200160009054906101000a900473ffffffffffffffffffffffffffffffffffffffff16905060008090505b600260008373ffffffffffffffffffffffffffffffffffffffff1673ffffffffffffffffffffffffffffffffffffffff16815260200190815260200160002060020180549050811015611d8a573373ffffffffffffffffffffffffffffffffffffffff16600260008473ffffffffffffffffffffffffffffffffffffffff1673ffffffffffffffffffffffffffffffffffffffff1681526020019081526020016000206002018281548110611d2c57fe5b9060005260206000200160009054906101000a900473ffffffffffffffffffffffffffffffffffffffff1673ffffffffffffffffffffffffffffffffffffffff161415611d7d57611d7c82610cda565b5b8080600101915050611c7b565b50508080600101915050611c2c565b50600160003373ffffffffffffffffffffffffffffffffffffffff1673ffffffffffffffffffffffffffffffffffffffff16815260200190815260200160002060008082016000611dea919061430d565b6001820160009055600282016000611e029190614355565b600382016000611e12919061430d565b50503373ffffffffffffffffffffffffffffffffffffffff167fc425ac284bf529aee3853dcc8216f311c96975bf8fda55ccff333297a93ed0f360405160405180910390a2565b6060600160008373ffffffffffffffffffffffffffffffffffffffff1673ffffffffffffffffffffffffffffffffffffffff1681526020019081526020016000206003018054600181600116156101000203166002900480601f016020809104026020016040519081016040528092919081815260200182805460018160011615610100020316600290048015611f315780601f10611f0657610100808354040283529160200191611f31565b820191906000526020600020905b815481529060010190602001808311611f1457829003601f168201915b50505050509050919050565b6000339050611f4a614376565b8381600001819052508281602001818152505080600260008473ffffffffffffffffffffffffffffffffffffffff1673ffffffffffffffffffffffffffffffffffffffff1681526020019081526020016000206000820151816000019080519060200190611fb99291906141e1565b50602082015181600101556040820151816002019080519060200190611fe0929190614397565b5090505060048290806001815401808255809150509060018203906000526020600020016000909192909190916101000a81548173ffffffffffffffffffffffffffffffffffffffff021916908373ffffffffffffffffffffffffffffffffffffffff160217905550506001600960008473ffffffffffffffffffffffffffffffffffffffff1673ffffffffffffffffffffffffffffffffffffffff16815260200190815260200160002060006101000a81548160ff0219169083151502179055508173ffffffffffffffffffffffffffffffffffffffff167f899d4747bdcaeaee311a360cdf5b49a6987399a996780a46bed1f4beb5c4b978856040516120e89190614cab565b60405180910390a250505050565b606060008073ffffffffffffffffffffffffffffffffffffffff168373ffffffffffffffffffffffffffffffffffffffff161415612169576040517f08c379a000000000000000000000000000000000000000000000000000000000815260040161216090614d42565b60405180910390fd5b600260008473ffffffffffffffffffffffffffffffffffffffff1673ffffffffffffffffffffffffffffffffffffffff168152602001908152602001600020600001600260008573ffffffffffffffffffffffffffffffffffffffff1673ffffffffffffffffffffffffffffffffffffffff16815260200190815260200160002060010154818054600181600116156101000203166002900480601f0160208091040260200160405190810160405280929190818152602001828054600181600116156101000203166002900480156122835780601f1061225857610100808354040283529160200191612283565b820191906000526020600020905b81548152906001019060200180831161226657829003601f168201915b5050505050915091509150915091565b61229c8261324e565b6122db576040517f08c379a00000000000000000000000000000000000000000000000000000000081526004016122d290614de2565b60405180910390fd5b6000600260008373ffffffffffffffffffffffffffffffffffffffff1673ffffffffffffffffffffffffffffffffffffffff168152602001908152602001600020600101541415612361576040517f08c379a000000000000000000000000000000000000000000000000000000000815260040161235890614e02565b60405180910390fd5b60008090505b6004805490508110156124ac578173ffffffffffffffffffffffffffffffffffffffff166004828154811061239857fe5b9060005260206000200160009054906101000a900473ffffffffffffffffffffffffffffffffffffffff1673ffffffffffffffffffffffffffffffffffffffff16141561249f5760016004805490500381146124845760046001600480549050038154811061240357fe5b9060005260206000200160009054906101000a900473ffffffffffffffffffffffffffffffffffffffff166004828154811061243b57fe5b9060005260206000200160006101000a81548173ffffffffffffffffffffffffffffffffffffffff021916908373ffffffffffffffffffffffffffffffffffffffff1602179055505b600480548091906001900361249991906142e1565b506124ac565b8080600101915050612367565b50600260008273ffffffffffffffffffffffffffffffffffffffff1673ffffffffffffffffffffffffffffffffffffffff168152602001908152602001600020600080820160006124fd919061430d565b60018201600090556002820160006125159190614355565b50508073ffffffffffffffffffffffffffffffffffffffff168273ffffffffffffffffffffffffffffffffffffffff167f7fa955ed19d77e720f957ccab5d82adcf6d67ddbc3f8d95c7fbbdb0ecb58f38560405160405180910390a35050565b61257e8261324e565b6125bd576040517f08c379a00000000000000000000000000000000000000000000000000000000081526004016125b490614de2565b60405180910390fd5b6000600560008373ffffffffffffffffffffffffffffffffffffffff1673ffffffffffffffffffffffffffffffffffffffff168152602001908152602001600020600101541415612643576040517f08c379a000000000000000000000000000000000000000000000000000000000815260040161263a90614e62565b60405180910390fd5b60008090505b60068054905081101561278e578173ffffffffffffffffffffffffffffffffffffffff166006828154811061267a57fe5b9060005260206000200160009054906101000a900473ffffffffffffffffffffffffffffffffffffffff1673ffffffffffffffffffffffffffffffffffffffff161415612781576001600680549050038114612766576006600160068054905003815481106126e557fe5b9060005260206000200160009054906101000a900473ffffffffffffffffffffffffffffffffffffffff166006828154811061271d57fe5b9060005260206000200160006101000a81548173ffffffffffffffffffffffffffffffffffffffff021916908373ffffffffffffffffffffffffffffffffffffffff1602179055505b600680548091906001900361277b91906142e1565b5061278e565b8080600101915050612649565b50600560008273ffffffffffffffffffffffffffffffffffffffff1673ffffffffffffffffffffffffffffffffffffffff168152602001908152602001600020600080820160006127df919061430d565b600182016000905550508073ffffffffffffffffffffffffffffffffffffffff168273ffffffffffffffffffffffffffffffffffffffff167ff507f241b557d1887203ce18a263230b09ba279a1139522f99ed2d6988236a8060405160405180910390a35050565b6128508261324e565b61288f576040517f08c379a000000000000000000000000000000000000000000000000000000000815260040161288690614de2565b60405180910390fd5b60078190806001815401808255809150509060018203906000526020600020016000909192909190916101000a81548173ffffffffffffffffffffffffffffffffffffffff021916908373ffffffffffffffffffffffffffffffffffffffff160217905550506001600860008373ffffffffffffffffffffffffffffffffffffffff1673ffffffffffffffffffffffffffffffffffffffff16815260200190815260200160002060006101000a81548160ff0219169083151502179055506001600960008473ffffffffffffffffffffffffffffffffffffffff1673ffffffffffffffffffffffffffffffffffffffff16815260200190815260200160002060006101000a81548160ff0219169083151502179055505050565b6129b28261324e565b6129f1576040517f08c379a00000000000000000000000000000000000000000000000000000000081526004016129e890614de2565b60405180910390fd5b6000600160008373ffffffffffffffffffffffffffffffffffffffff1673ffffffffffffffffffffffffffffffffffffffff168152602001908152602001600020600101541415612a77576040517f08c379a0000000000000000000000000000000000000000000000000000000008152600401612a6e90614e22565b60405180910390fd5b60008090505b600380549050811015612bc2578173ffffffffffffffffffffffffffffffffffffffff1660038281548110612aae57fe5b9060005260206000200160009054906101000a900473ffffffffffffffffffffffffffffffffffffffff1673ffffffffffffffffffffffffffffffffffffffff161415612bb5576001600380549050038114612b9a57600360016003805490500381548110612b1957fe5b9060005260206000200160009054906101000a900473ffffffffffffffffffffffffffffffffffffffff1660038281548110612b5157fe5b9060005260206000200160006101000a81548173ffffffffffffffffffffffffffffffffffffffff021916908373ffffffffffffffffffffffffffffffffffffffff1602179055505b6003805480919060019003612baf91906142e1565b50612bc2565b8080600101915050612a7d565b5060008090505b600480549050811015612d3757600060048281548110612be557fe5b9060005260206000200160009054906101000a900473ffffffffffffffffffffffffffffffffffffffff16905060008090505b600260008373ffffffffffffffffffffffffffffffffffffffff1673ffffffffffffffffffffffffffffffffffffffff16815260200190815260200160002060020180549050811015612d28578373ffffffffffffffffffffffffffffffffffffffff16600260008473ffffffffffffffffffffffffffffffffffffffff1673ffffffffffffffffffffffffffffffffffffffff1681526020019081526020016000206002018281548110612cc957fe5b9060005260206000200160009054906101000a900473ffffffffffffffffffffffffffffffffffffffff1673ffffffffffffffffffffffffffffffffffffffff161415612d1b57612d1a848361385d565b5b8080600101915050612c18565b50508080600101915050612bc9565b50600160008273ffffffffffffffffffffffffffffffffffffffff1673ffffffffffffffffffffffffffffffffffffffff16815260200190815260200160002060008082016000612d88919061430d565b6001820160009055600282016000612da09190614355565b600382016000612db0919061430d565b50508073ffffffffffffffffffffffffffffffffffffffff168273ffffffffffffffffffffffffffffffffffffffff167fd00481c3fc5867ec74704c9c99334b8d53c7735c947bdcb6cbebcae6740ed94060405160405180910390a35050565b60606004805480602002602001604051908101604052809291908181526020018280548015612e9457602002820191906000526020600020905b8160009054906101000a900473ffffffffffffffffffffffffffffffffffffffff1673ffffffffffffffffffffffffffffffffffffffff1681526020019060010190808311612e4a575b5050505050905090565b606060006060600073ffffffffffffffffffffffffffffffffffffffff168473ffffffffffffffffffffffffffffffffffffffff161415612f14576040517f08c379a0000000000000000000000000000000000000000000000000000000008152600401612f0b90614d42565b60405180910390fd5b600080905060008090505b600260008773ffffffffffffffffffffffffffffffffffffffff1673ffffffffffffffffffffffffffffffffffffffff16815260200190815260200160002060020180549050811015613029578573ffffffffffffffffffffffffffffffffffffffff16600260008873ffffffffffffffffffffffffffffffffffffffff1673ffffffffffffffffffffffffffffffffffffffff1681526020019081526020016000206002018281548110612fd057fe5b9060005260206000200160009054906101000a900473ffffffffffffffffffffffffffffffffffffffff1673ffffffffffffffffffffffffffffffffffffffff16141561301c57600191505b8080600101915050612f1f565b5060011515811515141561324257600160008673ffffffffffffffffffffffffffffffffffffffff1673ffffffffffffffffffffffffffffffffffffffff168152602001908152602001600020600001600160008773ffffffffffffffffffffffffffffffffffffffff1673ffffffffffffffffffffffffffffffffffffffff16815260200190815260200160002060010154600160008873ffffffffffffffffffffffffffffffffffffffff1673ffffffffffffffffffffffffffffffffffffffff168152602001908152602001600020600301828054600181600116156101000203166002900480601f0160208091040260200160405190810160405280929190818152602001828054600181600116156101000203166002900480156131935780601f1061316857610100808354040283529160200191613193565b820191906000526020600020905b81548152906001019060200180831161317657829003601f168201915b50505050509250808054600181600116156101000203166002900480601f01602080910402602001604051908101604052809291908181526020018280546001816001161561010002031660029004801561322f5780601f106132045761010080835404028352916020019161322f565b820191906000526020600020905b81548152906001019060200180831161321257829003601f168201915b5050505050905093509350935050613247565b600080fd5b9193909250565b6000600860008373ffffffffffffffffffffffffffffffffffffffff1673ffffffffffffffffffffffffffffffffffffffff16815260200190815260200160002060009054906101000a900460ff169050919050565b600381815481106132b157fe5b906000526020600020016000915054906101000a900473ffffffffffffffffffffffffffffffffffffffff1681565b60606000600160008473ffffffffffffffffffffffffffffffffffffffff1673ffffffffffffffffffffffffffffffffffffffff1681526020019081526020016000206002019050808054806020026020016040519081016040528092919081815260200182805480156133a957602002820191906000526020600020905b8160009054906101000a900473ffffffffffffffffffffffffffffffffffffffff1673ffffffffffffffffffffffffffffffffffffffff168152602001906001019080831161335f575b5050505050915050919050565b600073ffffffffffffffffffffffffffffffffffffffff168273ffffffffffffffffffffffffffffffffffffffff161415613426576040517f08c379a000000000000000000000000000000000000000000000000000000000815260040161341d90614d42565b60405180910390fd5b806000808473ffffffffffffffffffffffffffffffffffffffff1673ffffffffffffffffffffffffffffffffffffffff1681526020019081526020016000209080519060200190613478929190614261565b505050565b60606000600260008473ffffffffffffffffffffffffffffffffffffffff1673ffffffffffffffffffffffffffffffffffffffff16815260200190815260200160002060020190508080548060200260200160405190810160405280929190818152602001828054801561354657602002820191906000526020600020905b8160009054906101000a900473ffffffffffffffffffffffffffffffffffffffff1673ffffffffffffffffffffffffffffffffffffffff16815260200190600101908083116134fc575b5050505050915050919050565b606061355f8383611329565b61359e576040517f08c379a000000000000000000000000000000000000000000000000000000000815260040161359590614d82565b60405180910390fd5b6000808373ffffffffffffffffffffffffffffffffffffffff1673ffffffffffffffffffffffffffffffffffffffff1681526020019081526020016000208054600181600116156101000203166002900480601f0160208091040260200160405190810160405280929190818152602001828054600181600116156101000203166002900480156136705780601f1061364557610100808354040283529160200191613670565b820191906000526020600020905b81548152906001019060200180831161365357829003601f168201915b5050505050905092915050565b600033905061368a614421565b8481600001819052508381602001818152505082816060018190525080600160008473ffffffffffffffffffffffffffffffffffffffff1673ffffffffffffffffffffffffffffffffffffffff16815260200190815260200160002060008201518160000190805190602001906137029291906141e1565b50602082015181600101556040820151816002019080519060200190613729929190614397565b5060608201518160030190805190602001906137469291906141e1565b5090505060038290806001815401808255809150509060018203906000526020600020016000909192909190916101000a81548173ffffffffffffffffffffffffffffffffffffffff021916908373ffffffffffffffffffffffffffffffffffffffff160217905550506001600960008473ffffffffffffffffffffffffffffffffffffffff1673ffffffffffffffffffffffffffffffffffffffff16815260200190815260200160002060006101000a81548160ff0219169083151502179055508173ffffffffffffffffffffffffffffffffffffffff167fc85b128388b9c331a2a5485dce4cd0f3db9f7c279d327ce95d6d39d6c94644c78660405161384e9190614cab565b60405180910390a25050505050565b600073ffffffffffffffffffffffffffffffffffffffff168273ffffffffffffffffffffffffffffffffffffffff1614156138cd576040517f08c379a00000000000000000000000000000000000000000000000000000000081526004016138c490614d42565b60405180910390fd5b600073ffffffffffffffffffffffffffffffffffffffff168173ffffffffffffffffffffffffffffffffffffffff16141561393d576040517f08c379a000000000000000000000000000000000000000000000000000000000815260040161393490614d42565b60405180910390fd5b613988600260008373ffffffffffffffffffffffffffffffffffffffff1673ffffffffffffffffffffffffffffffffffffffff16815260200190815260200160002060020183613f90565b506139d4600160008473ffffffffffffffffffffffffffffffffffffffff1673ffffffffffffffffffffffffffffffffffffffff16815260200190815260200160002060020182613f90565b508073ffffffffffffffffffffffffffffffffffffffff168273ffffffffffffffffffffffffffffffffffffffff167f5aaac076e376b6fa6faab7e2dedc220a862d0d67b7987be9a6ab47fb0e9f613860405160405180910390a35050565b60068181548110613a4057fe5b906000526020600020016000915054906101000a900473ffffffffffffffffffffffffffffffffffffffff1681565b60606006805480602002602001604051908101604052809291908181526020018280548015613af357602002820191906000526020600020905b8160009054906101000a900473ffffffffffffffffffffffffffffffffffffffff1673ffffffffffffffffffffffffffffffffffffffff1681526020019060010190808311613aa9575b5050505050905090565b80600160008473ffffffffffffffffffffffffffffffffffffffff1673ffffffffffffffffffffffffffffffffffffffff1681526020019081526020016000206003019080519060200190613b53929190614261565b505050565b6060806060600380549050604051908082528060200260200182016040528015613b9657816020015b6060815260200190600190039081613b815790505b50905060008090505b600380549050811015613ce2576001600060038381548110613bbd57fe5b9060005260206000200160009054906101000a900473ffffffffffffffffffffffffffffffffffffffff1673ffffffffffffffffffffffffffffffffffffffff1673ffffffffffffffffffffffffffffffffffffffff1681526020019081526020016000206003018054600181600116156101000203166002900480601f016020809104026020016040519081016040528092919081815260200182805460018160011615610100020316600290048015613cb95780601f10613c8e57610100808354040283529160200191613cb9565b820191906000526020600020905b815481529060010190602001808311613c9c57829003601f168201915b5050505050828281518110613cca57fe5b60200260200101819052508080600101915050613b9f565b5060038181805480602002602001604051908101604052809291908181526020018280548015613d6757602002820191906000526020600020905b8160009054906101000a900473ffffffffffffffffffffffffffffffffffffffff1673ffffffffffffffffffffffffffffffffffffffff1681526020019060010190808311613d1d575b5050505050915092509250509091565b600073ffffffffffffffffffffffffffffffffffffffff168173ffffffffffffffffffffffffffffffffffffffff161415613de7576040517f08c379a0000000000000000000000000000000000000000000000000000000008152600401613dde90614d42565b60405180910390fd5b600260008273ffffffffffffffffffffffffffffffffffffffff1673ffffffffffffffffffffffffffffffffffffffff1681526020019081526020016000206002013390806001815401808255809150509060018203906000526020600020016000909192909190916101000a81548173ffffffffffffffffffffffffffffffffffffffff021916908373ffffffffffffffffffffffffffffffffffffffff16021790555050600160003373ffffffffffffffffffffffffffffffffffffffff1673ffffffffffffffffffffffffffffffffffffffff1681526020019081526020016000206002018190806001815401808255809150509060018203906000526020600020016000909192909190916101000a81548173ffffffffffffffffffffffffffffffffffffffff021916908373ffffffffffffffffffffffffffffffffffffffff160217905550508073ffffffffffffffffffffffffffffffffffffffff163373ffffffffffffffffffffffffffffffffffffffff167f9f520b3bfc56d06f7065d10b4683b3f57ac8895d5026cd176dee95ce1454cb8d60405160405180910390a350565b60008060009050600080905060008090505b858054905081101561402d578473ffffffffffffffffffffffffffffffffffffffff16868281548110613fd157fe5b9060005260206000200160009054906101000a900473ffffffffffffffffffffffffffffffffffffffff1673ffffffffffffffffffffffffffffffffffffffff16141561402057600192508091505b8080600101915050613fa2565b508161403857600080fd5b614042858261404a565b505092915050565b81805490508110614090576040517f08c379a000000000000000000000000000000000000000000000000000000000815260040161408790614d62565b60405180910390fd5b6001828054905014156140db578181815481106140a957fe5b9060005260206000200160006101000a81549073ffffffffffffffffffffffffffffffffffffffff02191690556141ae565b816001838054905003815481106140ee57fe5b9060005260206000200160009054906101000a900473ffffffffffffffffffffffffffffffffffffffff1682828154811061412557fe5b9060005260206000200160006101000a81548173ffffffffffffffffffffffffffffffffffffffff021916908373ffffffffffffffffffffffffffffffffffffffff1602179055508160018380549050038154811061418057fe5b9060005260206000200160006101000a81549073ffffffffffffffffffffffffffffffffffffffff02191690555b818054809190600190036141c29190614449565b505050565b604051806040016040528060608152602001600081525090565b828054600181600116156101000203166002900490600052602060002090601f016020900481019282601f1061422257805160ff1916838001178555614250565b82800160010185558215614250579182015b8281111561424f578251825591602001919060010190614234565b5b50905061425d9190614475565b5090565b828054600181600116156101000203166002900490600052602060002090601f016020900481019282601f106142a257805160ff19168380011785556142d0565b828001600101855582156142d0579182015b828111156142cf5782518255916020019190600101906142b4565b5b5090506142dd9190614475565b5090565b815481835581811115614308578183600052602060002091820191016143079190614475565b5b505050565b50805460018160011615610100020316600290046000825580601f106143335750614352565b601f0160209004906000526020600020908101906143519190614475565b5b50565b50805460008255906000526020600020908101906143739190614475565b50565b60405180606001604052806060815260200160008152602001606081525090565b828054828255906000526020600020908101928215614410579160200282015b8281111561440f5782518260006101000a81548173ffffffffffffffffffffffffffffffffffffffff021916908373ffffffffffffffffffffffffffffffffffffffff160217905550916020019190600101906143b7565b5b50905061441d919061449a565b5090565b6040518060800160405280606081526020016000815260200160608152602001606081525090565b8154818355818111156144705781836000526020600020918201910161446f9190614475565b5b505050565b61449791905b8082111561449357600081600090555060010161447b565b5090565b90565b6144da91905b808211156144d657600081816101000a81549073ffffffffffffffffffffffffffffffffffffffff0219169055506001016144a0565b5090565b90565b6000813590506144ec8161503b565b92915050565b600082601f83011261450357600080fd5b813561451661451182614eca565b614e9d565b9150808252602083016020830185838301111561453257600080fd5b61453d838284614fe8565b50505092915050565b60008135905061455581615052565b92915050565b60006020828403121561456d57600080fd5b600061457b848285016144dd565b91505092915050565b6000806040838503121561459757600080fd5b60006145a5858286016144dd565b92505060206145b6858286016144dd565b9150509250929050565b600080604083850312156145d357600080fd5b60006145e1858286016144dd565b925050602083013567ffffffffffffffff8111156145fe57600080fd5b61460a858286016144f2565b9150509250929050565b6000806040838503121561462757600080fd5b600083013567ffffffffffffffff81111561464157600080fd5b61464d858286016144f2565b925050602061465e85828601614546565b9150509250929050565b60008060006060848603121561467d57600080fd5b600084013567ffffffffffffffff81111561469757600080fd5b6146a3868287016144f2565b93505060206146b486828701614546565b925050604084013567ffffffffffffffff8111156146d157600080fd5b6146dd868287016144f2565b9150509250925092565b600080600080608085870312156146fd57600080fd5b600085013567ffffffffffffffff81111561471757600080fd5b614723878288016144f2565b945050602061473487828801614546565b935050604061474587828801614546565b925050606085013567ffffffffffffffff81111561476257600080fd5b61476e878288016144f2565b91505092959194509250565b60006020828403121561478c57600080fd5b600061479a84828501614546565b91505092915050565b60006147af83836147cf565b60208301905092915050565b60006147c78383614908565b905092915050565b6147d881614fa0565b82525050565b6147e781614fa0565b82525050565b60006147f882614f16565b6148028185614f5c565b935061480d83614ef6565b8060005b8381101561483e57815161482588826147a3565b975061483083614f42565b925050600181019050614811565b5085935050505092915050565b600061485682614f21565b6148608185614f6d565b93508360208202850161487285614f06565b8060005b858110156148ae578484038952815161488f85826147bb565b945061489a83614f4f565b925060208a01995050600181019050614876565b50829750879550505050505092915050565b6148c981614fb2565b82525050565b60006148da82614f37565b6148e48185614f8f565b93506148f4818560208601614ff7565b6148fd8161502a565b840191505092915050565b600061491382614f2c565b61491d8185614f7e565b935061492d818560208601614ff7565b6149368161502a565b840191505092915050565b600061494e600f83614f8f565b91507f496e76616c6964206164647265737300000000000000000000000000000000006000830152602082019050919050565b600061498e600d83614f8f565b91507f496e76616c696420696e646578000000000000000000000000000000000000006000830152602082019050919050565b60006149ce600d83614f8f565b91507f4163636573732044656e696564000000000000000000000000000000000000006000830152602082019050919050565b6000614a0e601a83614f8f565b91507f4164647265737320616c726561647920726567697374657265640000000000006000830152602082019050919050565b6000614a4e601b83614f8f565b91507f496e76616c69642064657374696e6174696f6e206164647265737300000000006000830152602082019050919050565b6000614a8e600c83614f8f565b91507f4e6f7420616e2061646d696e00000000000000000000000000000000000000006000830152602082019050919050565b6000614ace601083614f8f565b91507f446f63746f72206e6f7420666f756e64000000000000000000000000000000006000830152602082019050919050565b6000614b0e601183614f8f565b91507f50617469656e74206e6f7420666f756e640000000000000000000000000000006000830152602082019050919050565b6000614b4e601683614f8f565b91507f496e76616c69642073656e6465722061646472657373000000000000000000006000830152602082019050919050565b6000614b8e601583614f8f565b91507f496e737469747574696f6e206e6f7420666f756e6400000000000000000000006000830152602082019050919050565b614bca81614fde565b82525050565b6000602082019050614be560008301846147de565b92915050565b60006020820190508181036000830152614c0581846147ed565b905092915050565b60006060820190508181036000830152614c2781866147ed565b90508181036020830152614c3b81856147ed565b90508181036040830152614c4f81846147ed565b9050949350505050565b60006040820190508181036000830152614c7381856147ed565b90508181036020830152614c87818461484b565b90509392505050565b6000602082019050614ca560008301846148c0565b92915050565b60006020820190508181036000830152614cc581846148cf565b905092915050565b60006040820190508181036000830152614ce781856148cf565b9050614cf66020830184614bc1565b9392505050565b60006060820190508181036000830152614d1781866148cf565b9050614d266020830185614bc1565b8181036040830152614d3881846148cf565b9050949350505050565b60006020820190508181036000830152614d5b81614941565b9050919050565b60006020820190508181036000830152614d7b81614981565b9050919050565b60006020820190508181036000830152614d9b816149c1565b9050919050565b60006020820190508181036000830152614dbb81614a01565b9050919050565b60006020820190508181036000830152614ddb81614a41565b9050919050565b60006020820190508181036000830152614dfb81614a81565b9050919050565b60006020820190508181036000830152614e1b81614ac1565b9050919050565b60006020820190508181036000830152614e3b81614b01565b9050919050565b60006020820190508181036000830152614e5b81614b41565b9050919050565b60006020820190508181036000830152614e7b81614b81565b9050919050565b6000602082019050614e976000830184614bc1565b92915050565b6000604051905081810181811067ffffffffffffffff82111715614ec057600080fd5b8060405250919050565b600067ffffffffffffffff821115614ee157600080fd5b601f19601f8301169050602081019050919050565b6000819050602082019050919050565b6000819050602082019050919050565b600081519050919050565b600081519050919050565b600081519050919050565b600081519050919050565b6000602082019050919050565b6000602082019050919050565b600082825260208201905092915050565b600082825260208201905092915050565b600082825260208201905092915050565b600082825260208201905092915050565b6000614fab82614fbe565b9050919050565b60008115159050919050565b600073ffffffffffffffffffffffffffffffffffffffff82169050919050565b6000819050919050565b82818337600083830152505050565b60005b83811015615015578082015181840152602081019050614ffa565b83811115615024576000848401525b50505050565b6000601f19601f8301169050919050565b61504481614fa0565b811461504f57600080fd5b50565b61505b81614fde565b811461506657600080fd5b5056fea365627a7a72315820fbb9ab566b86f55cfdbe1645d56abbed01f2295664898564aa7725dbcbbfab646c6578706572696d656e74616cf564736f6c63430005100040",
  "source": "pragma solidity ^0.5.16;\r\npragma experimental ABIEncoderV2;\r\n//import \"./InfoLib.sol\";\r\ncontract infecDisInfo {\r\n\r\n    event PatientRegistered(address indexed senderAddress, string name);\r\n    event DocterRegistered(address indexed senderAddress, string name);\r\n    event InstitutionRegistered(address indexed senderAddress, string name);\r\n    event AccessGranted(address indexed senderAddress, address indexed destinationAddr);\r\n    event AdminAccessRevoked(address indexed senderAddress, address indexed destinationAddr);\r\n    event PatientRevokeAccess(address indexed senderAddress, address indexed destinationAddr);\r\n    event RecordUploaded(address indexed senderAddress, string fileHash);\r\n    event PatientRemoved(address indexed senderAddress, address indexed destinationAddr);\r\n    event DocterRemoved(address indexed senderAddress, address indexed destinationAddr);\r\n    event InstitutionRemoved(address indexed senderAddress, address indexed destinationAddr);\r\n    event UserRemoveAccount(address indexed senderAddress);\r\n    event UserRemoveInfoRecords(address indexed senderAddress);\r\n\r\n    struct patientInfo{\r\n        string name;\r\n        uint contactNum;\r\n        address[] docAccessList;\r\n        string infecRecords;\r\n    }\r\n    struct docterInfo{\r\n        string name;\r\n        uint contactNum;\r\n        address[] userAccessList;\r\n    }\r\n    struct institutionInfo{\r\n        string name;\r\n        uint contactNum;\r\n        //address[] userAccessList;\r\n    }\r\n\r\n    mapping (address => string) private keys;\r\n    mapping(address => patientInfo) patientInfoMap;\r\n    mapping(address => docterInfo) docterInfoMap;\r\n    address[] public patientList;\r\n    address[] public docterList;\r\n    mapping(address => institutionInfo) institutionInfoMap;\r\n    address[] public institutionList;\r\n\r\n    address[] private admins;\r\n    mapping(address => bool) public isAdmin;\r\n    mapping(address => bool) registeredAddresses;\r\n    \r\n    constructor() public {\r\n        // // \r\n        admins.push(0x4fe2F250C9E4e9e6aFbe310DD18F2B02df8caD88);\r\n        isAdmin[0x4fe2F250C9E4e9e6aFbe310DD18F2B02df8caD88] = true;\r\n    }\r\n\r\n    function register(string memory _regisName, uint _regisContactNum, uint _regisType, string memory _fileHash) public{\r\n        require(msg.sender != address(0), \"Invalid address\");\r\n        require(!registeredAddresses[msg.sender], \"Address already registered\");\r\n        \r\n        if(_regisType == 0){\r\n            addPatient(_regisName, _regisContactNum, _fileHash);\r\n        }\r\n        else if(_regisType == 1){\r\n            addDocter(_regisName, _regisContactNum);\r\n        }\r\n        else if(_regisType == 2){\r\n            addInstitution(_regisName, _regisContactNum);\r\n        }\r\n        else revert();\r\n    }\r\n\r\n    function addPatient (string memory _regisName, uint _regisContactNum, string memory _fileHash) public {\r\n        address senderAddress = msg.sender;\r\n        patientInfo memory patientData;\r\n        patientData.name = _regisName;\r\n        patientData.contactNum = _regisContactNum;\r\n        patientData.infecRecords = _fileHash;\r\n        patientInfoMap[senderAddress] = patientData;\r\n        patientList.push(senderAddress);\r\n        registeredAddresses[senderAddress] = true;\r\n        emit PatientRegistered(senderAddress, _regisName);\r\n    }\r\n\r\n    function addDocter (string memory _regisName, uint _regisContactNum) public {\r\n        address senderAddress = msg.sender;\r\n        docterInfo memory docterData;\r\n        docterData.name = _regisName;\r\n        docterData.contactNum = _regisContactNum;\r\n        docterInfoMap[senderAddress] = docterData;\r\n        docterList.push(senderAddress);\r\n        registeredAddresses[senderAddress] = true;\r\n        emit DocterRegistered(senderAddress, _regisName);\r\n    }\r\n\r\n    function addInstitution(string memory _regisName, uint _regisContactNum) public {\r\n        address senderAddress = msg.sender;\r\n        institutionInfo memory institutionData;\r\n        institutionData.name = _regisName;\r\n        institutionData.contactNum = _regisContactNum;\r\n        institutionInfoMap[senderAddress] = institutionData;\r\n        institutionList.push(senderAddress);\r\n        registeredAddresses[senderAddress] = true;\r\n        emit InstitutionRegistered(senderAddress, _regisName);\r\n    }\r\n\r\n    function addAdmin(address senderAddress, address _addAdminAddress) public {\r\n        require(isAddressAdmin(senderAddress), \"Not an admin\");\r\n        // \r\n        //address lowerCaseAdmin = toLowerCase(_addAdminAddress);        \r\n        // \r\n        admins.push(_addAdminAddress);\r\n        // \r\n        isAdmin[_addAdminAddress] = true; \r\n        registeredAddresses[senderAddress] = true;\r\n    }\r\n\r\n    // ,\r\n    function toLowerCase(address _addr) internal pure returns(address) {\r\n        return address(uint160(uint(_addr))); \r\n    }\r\n\r\n    function getPatientInfo(address patientAddr) public view returns(string memory, uint, string memory){//user get its own infomation\r\n        require(patientAddr != address(0), \"Invalid address\");\r\n        //return patientInfoMap[patientAddr];        \r\n        return (patientInfoMap[patientAddr].name, patientInfoMap[patientAddr].contactNum, patientInfoMap[patientAddr].infecRecords);\r\n    }\r\n\r\n    function getPatientInfoDoc(address patientAddr) public view returns(string memory , uint, string memory){//docter get user information\r\n        require(patientAddr != address(0), \"Invalid address\");\r\n        bool permission = false;\r\n        for (uint i = 0; i < docterInfoMap[patientAddr].userAccessList.length; i++){\r\n            if (docterInfoMap[patientAddr].userAccessList[i] == patientAddr) permission = true;\r\n        }\r\n        if (permission == true){\r\n            return (patientInfoMap[patientAddr].name, patientInfoMap[patientAddr].contactNum, patientInfoMap[patientAddr].infecRecords);\r\n        }\r\n        else revert();\r\n    }\r\n\r\n    function getDocterInfo(address docterAddr) public view returns(string memory , uint){//get docter information\r\n        require(docterAddr != address(0), \"Invalid address\");\r\n        return (docterInfoMap[docterAddr].name, docterInfoMap[docterAddr].contactNum);\r\n    }\r\n\r\n    function accessPermitGrant(address docterAddr) public{//grant docter access permission\r\n        require(docterAddr != address(0), \"Invalid address\");\r\n        docterInfoMap[docterAddr].userAccessList.push(msg.sender);\r\n        patientInfoMap[msg.sender].docAccessList.push(docterAddr);\r\n        emit AccessGranted(msg.sender, docterAddr);\r\n    }\r\n\r\n    function getPatientList() public view returns(address[] memory ){//\r\n    //\r\n    //get all patient address\r\n        return patientList;\r\n    }\r\n\r\n    function getDocterList() public view returns(address[] memory ){//\r\n    ////\r\n    //get all docter address\r\n        return docterList;\r\n    }\r\n\r\n    function recordUpload(address patientAddr, string memory _fileHash) public{//upload patient record\r\n        require(patientAddr != address(0), \"Invalid address\");\r\n        bool permission = false;\r\n        for (uint i = 0; i < docterInfoMap[msg.sender].userAccessList.length; i++){\r\n            if (docterInfoMap[msg.sender].userAccessList[i] == patientAddr) permission = true;\r\n        }\r\n        if (permission == true){\r\n            emit RecordUploaded(patientAddr, _fileHash);\r\n            setFileHash(patientAddr, _fileHash);\r\n        }\r\n        else revert();   \r\n    }\r\n\r\n    function getFileHash(address patientAddr) public view returns(string memory ){\r\n    //get patient record hash\r\n        return patientInfoMap[patientAddr].infecRecords;\r\n        //return patientInfoMap[patientAddr].infecRecords;\r\n    }\r\n\r\n    function setFileHash(address patientAddr, string memory _filehash) public {\r\n        patientInfoMap[patientAddr].infecRecords = _filehash;\r\n        //patientInfo[patientAddr].infecRecords = _filehash;\r\n    }\r\n\r\n    function accessPermitRevoke(address patientAddr, address docterAddr) public{//revoke docter access permission\r\n        require(patientAddr != address(0), \"Invalid address\");\r\n        require(docterAddr != address(0), \"Invalid address\");\r\n        accessPermitArrayCheck(docterInfoMap[docterAddr].userAccessList, patientAddr);\r\n        accessPermitArrayCheck(patientInfoMap[patientAddr].docAccessList, docterAddr);\r\n        emit AdminAccessRevoked(patientAddr, docterAddr);\r\n    }\r\n\r\n    function accessPermitRevokeForPatient(address docterAddr) public{\r\n        require(msg.sender != address(0), \"Invalid address\");\r\n        require(docterAddr != address(0), \"Invalid address\");\r\n        accessPermitArrayCheck(docterInfoMap[docterAddr].userAccessList, msg.sender);\r\n        accessPermitArrayCheck(patientInfoMap[msg.sender].docAccessList, docterAddr);\r\n        emit PatientRevokeAccess(msg.sender, docterAddr);\r\n    }\r\n\r\n    function accessPermitArrayCheck(address[] storage accessList, address addr) internal returns(uint) {\r\n        // \r\n        // \r\n        bool check = false;\r\n        uint del_index = 0;\r\n        for (uint i = 0; i < accessList.length; i++) {\r\n            if (accessList[i] == addr) {\r\n                check = true;\r\n                del_index = i;\r\n            }\r\n        }\r\n        if (!check) revert();\r\n        else {\r\n            accessPermitRemoval(accessList, del_index);\r\n        }\r\n    }\r\n\r\n    function accessPermitRemoval(address[] storage accessList, uint index) private {\r\n        require(index < accessList.length, \"Invalid index\");\r\n        if (accessList.length == 1) {\r\n            delete accessList[index];\r\n        } else {\r\n            accessList[index] = accessList[accessList.length - 1];\r\n            delete accessList[accessList.length - 1];\r\n        }\r\n        accessList.length--;\r\n    }\r\n    //\r\n    \r\n    function patientAccessPermitCheck(address patientAddr) public view returns (address[] memory )\r\n    { //\r\n    // patientInfo \r\n    //check weather got patient access permission\r\n        address[] storage docAccessListAddr = patientInfoMap[patientAddr].docAccessList;\r\n        return docAccessListAddr;\r\n    }\r\n\r\n    function docterAccessPermitCheck(address docterAddr) public view returns (address[] memory )\r\n    { //\r\n    // healthcareInfo \r\n        address[] storage userAccessListAddr = docterInfoMap[docterAddr].userAccessList;\r\n        return userAccessListAddr;\r\n    }\r\n\r\n    //test function for js code\r\n    function contractTestGetNumber() public view returns (uint256) {\r\n        return 8;\r\n    }\r\n\r\n    function getAllPatientsRecordsForInstitution() public view returns (address[] memory, string[] memory) {\r\n        //require(institutionInfoMap[msg.sender].contactNum != 0, \"Only registered institutions can access this data\");\r\n        string[] memory hashes = new string[](patientList.length);\r\n        for(uint i = 0; i < patientList.length; i++) {\r\n            hashes[i] = patientInfoMap[patientList[i]].infecRecords;\r\n        }\r\n        return (patientList, hashes);\r\n    }\r\n\r\n    function getInstitutionList() public view returns(address[] memory) {\r\n        return institutionList;\r\n    }\r\n    function getAdminsList() public view returns(address[] memory) {\r\n        return admins;\r\n    }\r\n    function getInstitutionInfo(address institutionAddr) public view returns(string memory, uint) {\r\n        require(institutionAddr != address(0), \"Invalid address\");\r\n        return (institutionInfoMap[institutionAddr].name, institutionInfoMap[institutionAddr].contactNum);\r\n    }\r\n    \r\n    function storeKey(address _senderAddr, string memory _key) public {\r\n        require(_senderAddr != address(0), \"Invalid address\");\r\n        keys[_senderAddr] = _key;\r\n    }\r\n\r\n    function retrieveKey(address _senderAddr, address _destinationAddr) public view returns (string memory) {\r\n        require(checkAccessPermission(_senderAddr, _destinationAddr), \"Access Denied\");\r\n        return keys[_destinationAddr];\r\n    }\r\n\r\n    function checkAccessPermission(address senderAddr, address destinationAddr) public view returns (bool) {\r\n        require(destinationAddr != address(0), \"Invalid destination address\");\r\n        require(senderAddr != address(0), \"Invalid sender address\");\r\n        \r\n        address[] memory docAccessList = patientInfoMap[destinationAddr].docAccessList;\r\n        for (uint i = 0; i < docAccessList.length; i++) {\r\n            if (docAccessList[i] == senderAddr) {\r\n                return true;\r\n            }\r\n        }\r\n        if (isAdmin[senderAddr]) {\r\n            return true;\r\n        }\r\n        else if (senderAddr == destinationAddr) {\r\n            return true;\r\n        }\r\n        return false;\r\n    }\r\n\r\n    modifier onlyAdmin() {\r\n        address senderAddress = msg.sender;\r\n        //address lowerSenderAddress = toLowerCase(senderAddress);\r\n\r\n        require(senderAddress != address(0), \"Invalid address\");\r\n\r\n        //require(isAdmin[lowerSenderAddress], \"L:Not an admin\");\r\n        require(isAdmin[senderAddress], \"Not an admin\");\r\n        _;\r\n    }\r\n\r\n    function getAllAccounts(address senderAddress) public returns (address[] memory patients, address[] memory doctors, address[] memory institutions) {\r\n        require(isAddressAdmin(senderAddress), \"Not an admin\");\r\n        return (patientList, docterList, institutionList);\r\n    }\r\n    \r\n    function removePatient(address senderAddress, address patientAddr) public {\r\n        require(isAddressAdmin(senderAddress), \"Not an admin\");\r\n        require(patientInfoMap[patientAddr].contactNum != 0, \"Patient not found\");\r\n        \r\n        // Remove patient from patientList\r\n        for(uint i = 0; i < patientList.length; i++) {\r\n            if(patientList[i] == patientAddr) {\r\n                if(i != patientList.length - 1) {\r\n                    patientList[i] = patientList[patientList.length - 1];\r\n                }\r\n                patientList.length--;\r\n                break;\r\n            }\r\n        }\r\n        for(uint i = 0; i < docterList.length; i++) {\r\n            address doctorAddr = docterList[i];\r\n            // Iterate doctor's userAccessList\r\n            for(uint j = 0; j < docterInfoMap[doctorAddr].userAccessList.length; j++) {\r\n            if(docterInfoMap[doctorAddr].userAccessList[j] == patientAddr) {\r\n                // Remove patientAddr from userAccessList\r\n                accessPermitRevoke(patientAddr, doctorAddr);\r\n            }\r\n            }\r\n        }\r\n        delete patientInfoMap[patientAddr];\r\n        emit PatientRemoved(senderAddress, patientAddr);\r\n    }\r\n    \r\n    function removeDoctor(address senderAddress, address doctorAddr) public {\r\n        require(isAddressAdmin(senderAddress), \"Not an admin\");\r\n        require(docterInfoMap[doctorAddr].contactNum != 0, \"Doctor not found\");\r\n        \r\n        // Remove doctor from docterList\r\n        for(uint i = 0; i < docterList.length; i++) {\r\n            if(docterList[i] == doctorAddr) {\r\n                if(i != docterList.length - 1) {\r\n                    docterList[i] = docterList[docterList.length - 1];\r\n                }\r\n                docterList.length--;\r\n                break;\r\n            }\r\n        }      \r\n        delete docterInfoMap[doctorAddr];\r\n        emit DocterRemoved(senderAddress, doctorAddr);\r\n    }\r\n    \r\n    function removeInstitution(address senderAddress, address institutionAddr) public {\r\n        require(isAddressAdmin(senderAddress), \"Not an admin\");\r\n        require(institutionInfoMap[institutionAddr].contactNum != 0, \"Institution not found\");\r\n        \r\n        // Remove institution from institutionList\r\n        for(uint i = 0; i < institutionList.length; i++) {\r\n            if(institutionList[i] == institutionAddr) {\r\n                if(i != institutionList.length - 1) {\r\n                    institutionList[i] = institutionList[institutionList.length - 1];\r\n                }\r\n                institutionList.length--;\r\n                break;\r\n            }\r\n        }        \r\n        delete institutionInfoMap[institutionAddr];\r\n        emit InstitutionRemoved(senderAddress, institutionAddr);\r\n    }\r\n\r\n    function getAdmins() public view returns(address[] memory) {\r\n        return admins;\r\n    }\r\n\r\n    function isAddressAdmin(address userAddress) public view returns (bool) {\r\n        return isAdmin[userAddress];\r\n    }\r\n    //user remove itself\r\n    function removeSelf() public {\r\n        require(patientInfoMap[msg.sender].contactNum != 0, \"Patient not found\");\r\n        \r\n        // Remove patient from patientList\r\n        for(uint i = 0; i < patientList.length; i++) {\r\n            if(patientList[i] == msg.sender) {\r\n                if(i != patientList.length - 1) {\r\n                    patientList[i] = patientList[patientList.length - 1];\r\n                }\r\n                patientList.length--;\r\n                break;\r\n            }\r\n        }\r\n        for(uint i = 0; i < docterList.length; i++) {\r\n            address doctorAddr = docterList[i];\r\n            // Iterate doctor's userAccessList\r\n            for(uint j = 0; j < docterInfoMap[doctorAddr].userAccessList.length; j++) {\r\n            if(docterInfoMap[doctorAddr].userAccessList[j] == msg.sender) {\r\n                // Remove patientAddr from userAccessList\r\n                accessPermitRevokeForPatient(doctorAddr);\r\n            }\r\n            }\r\n        }\r\n        delete patientInfoMap[msg.sender];\r\n        emit UserRemoveAccount(msg.sender);\r\n    }\r\n    //user delete infoRecords\r\n    function deleteInfoRecords() public {\r\n        require(patientInfoMap[msg.sender].contactNum != 0, \"Patient not found\");\r\n        patientInfoMap[msg.sender].infecRecords = \"\";\r\n        emit UserRemoveInfoRecords(msg.sender);\r\n    }\r\n}",
  "sourcePath": "D:\\ComputerScience\\FinalProject\\Code\\ep1\\contracts\\infecDisInfo.sol",
  "compiler": {
    "name": "solc",
    "version": "0.5.16+commit.9c3226ce.Emscripten.clang"
  },
  "schemaVersion": "3.4.14",
  "updatedAt": "2023-08-20T15:53:04.500Z",
  "networkType": "ethereum",
  "devdoc": {
    "methods": {}
  },
  "userdoc": {
    "methods": {}
  }
}