{
  "contractName": "infecDisInfo",
  "abi": [
    {
      "anonymous": false,
      "inputs": [
        {
          "indexed": true,
          "internalType": "address",
          "name": "patientAddr",
          "type": "address"
        },
        {
          "indexed": true,
          "internalType": "address",
          "name": "doctorAddr",
          "type": "address"
        }
      ],
      "name": "AccessGranted",
      "type": "event"
    },
    {
      "anonymous": false,
      "inputs": [
        {
          "indexed": true,
          "internalType": "address",
          "name": "patientAddr",
          "type": "address"
        },
        {
          "indexed": true,
          "internalType": "address",
          "name": "doctorAddr",
          "type": "address"
        }
      ],
      "name": "AccessRevoked",
      "type": "event"
    },
    {
      "anonymous": false,
      "inputs": [
        {
          "indexed": true,
          "internalType": "address",
          "name": "doctorAddr",
          "type": "address"
        },
        {
          "indexed": false,
          "internalType": "string",
          "name": "name",
          "type": "string"
        }
      ],
      "name": "DoctorRegistered",
      "type": "event"
    },
    {
      "anonymous": false,
      "inputs": [
        {
          "indexed": true,
          "internalType": "address",
          "name": "patientAddr",
          "type": "address"
        },
        {
          "indexed": false,
          "internalType": "string",
          "name": "name",
          "type": "string"
        }
      ],
      "name": "PatientRegistered",
      "type": "event"
    },
    {
      "anonymous": false,
      "inputs": [
        {
          "indexed": true,
          "internalType": "address",
          "name": "patientAddr",
          "type": "address"
        },
        {
          "indexed": false,
          "internalType": "string",
          "name": "fileHash",
          "type": "string"
        }
      ],
      "name": "RecordUploaded",
      "type": "event"
    },
    {
      "constant": true,
      "inputs": [
        {
          "internalType": "uint256",
          "name": "",
          "type": "uint256"
        }
      ],
      "name": "docterList",
      "outputs": [
        {
          "internalType": "address",
          "name": "",
          "type": "address"
        }
      ],
      "payable": false,
      "stateMutability": "view",
      "type": "function"
    },
    {
      "constant": true,
      "inputs": [
        {
          "internalType": "uint256",
          "name": "",
          "type": "uint256"
        }
      ],
      "name": "patientList",
      "outputs": [
        {
          "internalType": "address",
          "name": "",
          "type": "address"
        }
      ],
      "payable": false,
      "stateMutability": "view",
      "type": "function"
    },
    {
      "constant": false,
      "inputs": [
        {
          "internalType": "string",
          "name": "_regisName",
          "type": "string"
        },
        {
          "internalType": "uint256",
          "name": "_regisContactNum",
          "type": "uint256"
        },
        {
          "internalType": "uint256",
          "name": "_regisType",
          "type": "uint256"
        },
        {
          "internalType": "string",
          "name": "_fileHash",
          "type": "string"
        }
      ],
      "name": "register",
      "outputs": [],
      "payable": false,
      "stateMutability": "nonpayable",
      "type": "function"
    },
    {
      "constant": false,
      "inputs": [
        {
          "internalType": "string",
          "name": "_regisName",
          "type": "string"
        },
        {
          "internalType": "uint256",
          "name": "_regisContactNum",
          "type": "uint256"
        },
        {
          "internalType": "string",
          "name": "_fileHash",
          "type": "string"
        }
      ],
      "name": "addPatient",
      "outputs": [],
      "payable": false,
      "stateMutability": "nonpayable",
      "type": "function"
    },
    {
      "constant": false,
      "inputs": [
        {
          "internalType": "string",
          "name": "_regisName",
          "type": "string"
        },
        {
          "internalType": "uint256",
          "name": "_regisContactNum",
          "type": "uint256"
        }
      ],
      "name": "addDocter",
      "outputs": [],
      "payable": false,
      "stateMutability": "nonpayable",
      "type": "function"
    },
    {
      "constant": true,
      "inputs": [
        {
          "internalType": "address",
          "name": "patientAddr",
          "type": "address"
        }
      ],
      "name": "getPatientInfo",
      "outputs": [
        {
          "internalType": "string",
          "name": "",
          "type": "string"
        },
        {
          "internalType": "uint256",
          "name": "",
          "type": "uint256"
        },
        {
          "internalType": "string",
          "name": "",
          "type": "string"
        }
      ],
      "payable": false,
      "stateMutability": "view",
      "type": "function"
    },
    {
      "constant": true,
      "inputs": [
        {
          "internalType": "address",
          "name": "patientAddr",
          "type": "address"
        }
      ],
      "name": "getPatientInfoDoc",
      "outputs": [
        {
          "internalType": "string",
          "name": "",
          "type": "string"
        },
        {
          "internalType": "uint256",
          "name": "",
          "type": "uint256"
        },
        {
          "internalType": "string",
          "name": "",
          "type": "string"
        }
      ],
      "payable": false,
      "stateMutability": "view",
      "type": "function"
    },
    {
      "constant": true,
      "inputs": [
        {
          "internalType": "address",
          "name": "docterAddr",
          "type": "address"
        }
      ],
      "name": "getDocterInfo",
      "outputs": [
        {
          "internalType": "string",
          "name": "",
          "type": "string"
        },
        {
          "internalType": "uint256",
          "name": "",
          "type": "uint256"
        }
      ],
      "payable": false,
      "stateMutability": "view",
      "type": "function"
    },
    {
      "constant": false,
      "inputs": [
        {
          "internalType": "address",
          "name": "docterAddr",
          "type": "address"
        }
      ],
      "name": "accessPermitGrant",
      "outputs": [],
      "payable": false,
      "stateMutability": "nonpayable",
      "type": "function"
    },
    {
      "constant": true,
      "inputs": [],
      "name": "getPatientList",
      "outputs": [
        {
          "internalType": "address[]",
          "name": "",
          "type": "address[]"
        }
      ],
      "payable": false,
      "stateMutability": "view",
      "type": "function"
    },
    {
      "constant": true,
      "inputs": [],
      "name": "getDocterList",
      "outputs": [
        {
          "internalType": "address[]",
          "name": "",
          "type": "address[]"
        }
      ],
      "payable": false,
      "stateMutability": "view",
      "type": "function"
    },
    {
      "constant": false,
      "inputs": [
        {
          "internalType": "address",
          "name": "patientAddr",
          "type": "address"
        },
        {
          "internalType": "string",
          "name": "_fileHash",
          "type": "string"
        }
      ],
      "name": "recordUpload",
      "outputs": [],
      "payable": false,
      "stateMutability": "nonpayable",
      "type": "function"
    },
    {
      "constant": true,
      "inputs": [
        {
          "internalType": "address",
          "name": "patientAddr",
          "type": "address"
        }
      ],
      "name": "getFileHash",
      "outputs": [
        {
          "internalType": "string",
          "name": "",
          "type": "string"
        }
      ],
      "payable": false,
      "stateMutability": "view",
      "type": "function"
    },
    {
      "constant": false,
      "inputs": [
        {
          "internalType": "address",
          "name": "patientAddr",
          "type": "address"
        },
        {
          "internalType": "address",
          "name": "docterAddr",
          "type": "address"
        }
      ],
      "name": "accessPermitRevoke",
      "outputs": [],
      "payable": false,
      "stateMutability": "nonpayable",
      "type": "function"
    },
    {
      "constant": false,
      "inputs": [
        {
          "internalType": "address",
          "name": "docterAddr",
          "type": "address"
        }
      ],
      "name": "accessPermitRevokeForPatient",
      "outputs": [],
      "payable": false,
      "stateMutability": "nonpayable",
      "type": "function"
    },
    {
      "constant": true,
      "inputs": [
        {
          "internalType": "address",
          "name": "patientAddr",
          "type": "address"
        }
      ],
      "name": "patientAccessPermitCheck",
      "outputs": [
        {
          "internalType": "address[]",
          "name": "",
          "type": "address[]"
        }
      ],
      "payable": false,
      "stateMutability": "view",
      "type": "function"
    },
    {
      "constant": true,
      "inputs": [
        {
          "internalType": "address",
          "name": "docterAddr",
          "type": "address"
        }
      ],
      "name": "docterAccessPermitCheck",
      "outputs": [
        {
          "internalType": "address[]",
          "name": "",
          "type": "address[]"
        }
      ],
      "payable": false,
      "stateMutability": "view",
      "type": "function"
    }
  ],
  "bytecode": "0x608060405234801561001057600080fd5b50612c79806100206000396000f3fe608060405234801561001057600080fd5b506004361061010b5760003560e01c80637cbba3b4116100a2578063c3f518f911610071578063c3f518f9146109d5578063cdfebe8114610a6e578063d65da44a14610b07578063e48d345214610c63578063f7d5d44214610cc75761010b565b80637cbba3b41461071457806391ace054146107d85780639d64b4a014610837578063babb1d41146109675761010b565b80635338a70f116100de5780635338a70f1461044957806353a5711b1461052457806373c00ff414610592578063748c8d821461064f5761010b565b80631bc44009146101105780633b77f3d9146102765780634b426178146102ba578063503b1354146103ea575b600080fd5b6102746004803603608081101561012657600080fd5b810190808035906020019064010000000081111561014357600080fd5b82018360208201111561015557600080fd5b8035906020019184600183028401116401000000008311171561017757600080fd5b91908080601f016020809104026020016040519081016040528093929190818152602001838380828437600081840152601f19601f8201169050808301925050505050505091929192908035906020019092919080359060200190929190803590602001906401000000008111156101ee57600080fd5b82018360208201111561020057600080fd5b8035906020019184600183028401116401000000008311171561022257600080fd5b91908080601f016020809104026020016040519081016040528093929190818152602001838380828437600081840152601f19601f820116905080830192505050505050509192919290505050610d0b565b005b6102b86004803603602081101561028c57600080fd5b81019080803573ffffffffffffffffffffffffffffffffffffffff169060200190929190505050610deb565b005b6102fc600480360360208110156102d057600080fd5b81019080803573ffffffffffffffffffffffffffffffffffffffff169060200190929190505050610fcb565b604051808060200184815260200180602001838103835286818151815260200191508051906020019080838360005b8381101561034657808201518184015260208101905061032b565b50505050905090810190601f1680156103735780820380516001836020036101000a031916815260200191505b50838103825284818151815260200191508051906020019080838360005b838110156103ac578082015181840152602081019050610391565b50505050905090810190601f1680156103d95780820380516001836020036101000a031916815260200191505b509550505050505060405180910390f35b6103f261127d565b6040518080602001828103825283818151815260200191508051906020019060200280838360005b8381101561043557808201518184015260208101905061041a565b505050509050019250505060405180910390f35b6105226004803603604081101561045f57600080fd5b81019080803573ffffffffffffffffffffffffffffffffffffffff1690602001909291908035906020019064010000000081111561049c57600080fd5b8201836020820111156104ae57600080fd5b803590602001918460018302840111640100000000831117156104d057600080fd5b91908080601f016020809104026020016040519081016040528093929190818152602001838380828437600081840152601f19601f82011690508083019250505050505050919291929050505061130b565b005b6105506004803603602081101561053a57600080fd5b810190808035906020019092919050505061159d565b604051808273ffffffffffffffffffffffffffffffffffffffff1673ffffffffffffffffffffffffffffffffffffffff16815260200191505060405180910390f35b6105d4600480360360208110156105a857600080fd5b81019080803573ffffffffffffffffffffffffffffffffffffffff1690602001909291905050506115d9565b6040518080602001828103825283818151815260200191508051906020019080838360005b838110156106145780820151818401526020810190506105f9565b50505050905090810190601f1680156106415780820380516001836020036101000a031916815260200191505b509250505060405180910390f35b6107126004803603604081101561066557600080fd5b810190808035906020019064010000000081111561068257600080fd5b82018360208201111561069457600080fd5b803590602001918460018302840111640100000000831117156106b657600080fd5b91908080601f016020809104026020016040519081016040528093929190818152602001838380828437600081840152601f19601f820116905080830192505050505050509192919290803590602001909291905050506116bc565b005b6107566004803603602081101561072a57600080fd5b81019080803573ffffffffffffffffffffffffffffffffffffffff169060200190929190505050611882565b6040518080602001838152602001828103825284818151815260200191508051906020019080838360005b8381101561079c578082015181840152602081019050610781565b50505050905090810190601f1680156107c95780820380516001836020036101000a031916815260200191505b50935050505060405180910390f35b6107e0611a52565b6040518080602001828103825283818151815260200191508051906020019060200280838360005b83811015610823578082015181840152602081019050610808565b505050509050019250505060405180910390f35b6108796004803603602081101561084d57600080fd5b81019080803573ffffffffffffffffffffffffffffffffffffffff169060200190929190505050611ae0565b604051808060200184815260200180602001838103835286818151815260200191508051906020019080838360005b838110156108c35780820151818401526020810190506108a8565b50505050905090810190601f1680156108f05780820380516001836020036101000a031916815260200191505b50838103825284818151815260200191508051906020019080838360005b8381101561092957808201518184015260208101905061090e565b50505050905090810190601f1680156109565780820380516001836020036101000a031916815260200191505b509550505050505060405180910390f35b6109936004803603602081101561097d57600080fd5b8101908080359060200190929190505050611ec0565b604051808273ffffffffffffffffffffffffffffffffffffffff1673ffffffffffffffffffffffffffffffffffffffff16815260200191505060405180910390f35b610a17600480360360208110156109eb57600080fd5b81019080803573ffffffffffffffffffffffffffffffffffffffff169060200190929190505050611efc565b6040518080602001828103825283818151815260200191508051906020019060200280838360005b83811015610a5a578082015181840152602081019050610a3f565b505050509050019250505060405180910390f35b610ab060048036036020811015610a8457600080fd5b81019080803573ffffffffffffffffffffffffffffffffffffffff169060200190929190505050611fd1565b6040518080602001828103825283818151815260200191508051906020019060200280838360005b83811015610af3578082015181840152602081019050610ad8565b505050509050019250505060405180910390f35b610c6160048036036060811015610b1d57600080fd5b8101908080359060200190640100000000811115610b3a57600080fd5b820183602082011115610b4c57600080fd5b80359060200191846001830284011164010000000083111715610b6e57600080fd5b91908080601f016020809104026020016040519081016040528093929190818152602001838380828437600081840152601f19601f8201169050808301925050505050505091929192908035906020019092919080359060200190640100000000811115610bdb57600080fd5b820183602082011115610bed57600080fd5b80359060200191846001830284011164010000000083111715610c0f57600080fd5b91908080601f016020809104026020016040519081016040528093929190818152602001838380828437600081840152601f19601f8201169050808301925050505050505091929192905050506120a7565b005b610cc560048036036040811015610c7957600080fd5b81019080803573ffffffffffffffffffffffffffffffffffffffff169060200190929190803573ffffffffffffffffffffffffffffffffffffffff169060200190929190505050612293565b005b610d0960048036036020811015610cdd57600080fd5b81019080803573ffffffffffffffffffffffffffffffffffffffff1690602001909291905050506124ce565b005b600073ffffffffffffffffffffffffffffffffffffffff163373ffffffffffffffffffffffffffffffffffffffff161415610dae576040517f08c379a000000000000000000000000000000000000000000000000000000000815260040180806020018281038252600f8152602001807f496e76616c69642061646472657373000000000000000000000000000000000081525060200191505060405180910390fd5b6000821415610dc757610dc28484836120a7565b610de5565b6001821415610ddf57610dda84846116bc565b610de4565b600080fd5b5b50505050565b600073ffffffffffffffffffffffffffffffffffffffff163373ffffffffffffffffffffffffffffffffffffffff161415610e8e576040517f08c379a000000000000000000000000000000000000000000000000000000000815260040180806020018281038252600f8152602001807f496e76616c69642061646472657373000000000000000000000000000000000081525060200191505060405180910390fd5b600073ffffffffffffffffffffffffffffffffffffffff168173ffffffffffffffffffffffffffffffffffffffff161415610f31576040517f08c379a000000000000000000000000000000000000000000000000000000000815260040180806020018281038252600f8152602001807f496e76616c69642061646472657373000000000000000000000000000000000081525060200191505060405180910390fd5b610f7c600160008373ffffffffffffffffffffffffffffffffffffffff1673ffffffffffffffffffffffffffffffffffffffff16815260200190815260200160002060020133612719565b50610fc76000803373ffffffffffffffffffffffffffffffffffffffff1673ffffffffffffffffffffffffffffffffffffffff16815260200190815260200160002060020182612719565b5050565b606060006060600073ffffffffffffffffffffffffffffffffffffffff168473ffffffffffffffffffffffffffffffffffffffff161415611074576040517f08c379a000000000000000000000000000000000000000000000000000000000815260040180806020018281038252600f8152602001807f496e76616c69642061646472657373000000000000000000000000000000000081525060200191505060405180910390fd5b6000803373ffffffffffffffffffffffffffffffffffffffff1673ffffffffffffffffffffffffffffffffffffffff1681526020019081526020016000206000016000803373ffffffffffffffffffffffffffffffffffffffff1673ffffffffffffffffffffffffffffffffffffffff168152602001908152602001600020600101546000803373ffffffffffffffffffffffffffffffffffffffff1673ffffffffffffffffffffffffffffffffffffffff168152602001908152602001600020600301828054600181600116156101000203166002900480601f0160208091040260200160405190810160405280929190818152602001828054600181600116156101000203166002900480156111cd5780601f106111a2576101008083540402835291602001916111cd565b820191906000526020600020905b8154815290600101906020018083116111b057829003601f168201915b50505050509250808054600181600116156101000203166002900480601f0160208091040260200160405190810160405280929190818152602001828054600181600116156101000203166002900480156112695780601f1061123e57610100808354040283529160200191611269565b820191906000526020600020905b81548152906001019060200180831161124c57829003601f168201915b505050505090509250925092509193909250565b6060600280548060200260200160405190810160405280929190818152602001828054801561130157602002820191906000526020600020905b8160009054906101000a900473ffffffffffffffffffffffffffffffffffffffff1673ffffffffffffffffffffffffffffffffffffffff16815260200190600101908083116112b7575b5050505050905090565b600073ffffffffffffffffffffffffffffffffffffffff168273ffffffffffffffffffffffffffffffffffffffff1614156113ae576040517f08c379a000000000000000000000000000000000000000000000000000000000815260040180806020018281038252600f8152602001807f496e76616c69642061646472657373000000000000000000000000000000000081525060200191505060405180910390fd5b600080905060008090505b600160003373ffffffffffffffffffffffffffffffffffffffff1673ffffffffffffffffffffffffffffffffffffffff168152602001908152602001600020600201805490508110156114c3578373ffffffffffffffffffffffffffffffffffffffff16600160003373ffffffffffffffffffffffffffffffffffffffff1673ffffffffffffffffffffffffffffffffffffffff168152602001908152602001600020600201828154811061146a57fe5b9060005260206000200160009054906101000a900473ffffffffffffffffffffffffffffffffffffffff1673ffffffffffffffffffffffffffffffffffffffff1614156114b657600191505b80806001019150506113b9565b506001151581151514156114e0576114db83836127d3565b6114e5565b600080fd5b8273ffffffffffffffffffffffffffffffffffffffff167f01b64c1967d10407b4ff97725353edea760930f8e25d265e786a16eecbe4d7f7836040518080602001828103825283818151815260200191508051906020019080838360005b8381101561155e578082015181840152602081019050611543565b50505050905090810190601f16801561158b5780820380516001836020036101000a031916815260200191505b509250505060405180910390a2505050565b600381815481106115aa57fe5b906000526020600020016000915054906101000a900473ffffffffffffffffffffffffffffffffffffffff1681565b60606000808373ffffffffffffffffffffffffffffffffffffffff1673ffffffffffffffffffffffffffffffffffffffff1681526020019081526020016000206003018054600181600116156101000203166002900480601f0160208091040260200160405190810160405280929190818152602001828054600181600116156101000203166002900480156116b05780601f10611685576101008083540402835291602001916116b0565b820191906000526020600020905b81548152906001019060200180831161169357829003601f168201915b50505050509050919050565b60003390506116c96129dd565b8381600001819052508281602001818152505080600160008473ffffffffffffffffffffffffffffffffffffffff1673ffffffffffffffffffffffffffffffffffffffff16815260200190815260200160002060008201518160000190805190602001906117389291906129fe565b5060208201518160010155604082015181600201908051906020019061175f929190612a7e565b5090505060038290806001815401808255809150509060018203906000526020600020016000909192909190916101000a81548173ffffffffffffffffffffffffffffffffffffffff021916908373ffffffffffffffffffffffffffffffffffffffff160217905550508173ffffffffffffffffffffffffffffffffffffffff167f20481b8112b5bf4734f45a473c373db9df6a79ce946cdc0e7dbc22b4f7d7f986856040518080602001828103825283818151815260200191508051906020019080838360005b83811015611842578082015181840152602081019050611827565b50505050905090810190601f16801561186f5780820380516001836020036101000a031916815260200191505b509250505060405180910390a250505050565b606060008073ffffffffffffffffffffffffffffffffffffffff168373ffffffffffffffffffffffffffffffffffffffff161415611928576040517f08c379a000000000000000000000000000000000000000000000000000000000815260040180806020018281038252600f8152602001807f496e76616c69642061646472657373000000000000000000000000000000000081525060200191505060405180910390fd5b600160008473ffffffffffffffffffffffffffffffffffffffff1673ffffffffffffffffffffffffffffffffffffffff168152602001908152602001600020600001600160008573ffffffffffffffffffffffffffffffffffffffff1673ffffffffffffffffffffffffffffffffffffffff16815260200190815260200160002060010154818054600181600116156101000203166002900480601f016020809104026020016040519081016040528092919081815260200182805460018160011615610100020316600290048015611a425780601f10611a1757610100808354040283529160200191611a42565b820191906000526020600020905b815481529060010190602001808311611a2557829003601f168201915b5050505050915091509150915091565b60606003805480602002602001604051908101604052809291908181526020018280548015611ad657602002820191906000526020600020905b8160009054906101000a900473ffffffffffffffffffffffffffffffffffffffff1673ffffffffffffffffffffffffffffffffffffffff1681526020019060010190808311611a8c575b5050505050905090565b606060006060600073ffffffffffffffffffffffffffffffffffffffff168473ffffffffffffffffffffffffffffffffffffffff161415611b89576040517f08c379a000000000000000000000000000000000000000000000000000000000815260040180806020018281038252600f8152602001807f496e76616c69642061646472657373000000000000000000000000000000000081525060200191505060405180910390fd5b600080905060008090505b600160003373ffffffffffffffffffffffffffffffffffffffff1673ffffffffffffffffffffffffffffffffffffffff16815260200190815260200160002060020180549050811015611c9e578573ffffffffffffffffffffffffffffffffffffffff16600160003373ffffffffffffffffffffffffffffffffffffffff1673ffffffffffffffffffffffffffffffffffffffff1681526020019081526020016000206002018281548110611c4557fe5b9060005260206000200160009054906101000a900473ffffffffffffffffffffffffffffffffffffffff1673ffffffffffffffffffffffffffffffffffffffff161415611c9157600191505b8080600101915050611b94565b50600115158115151415611eb4576000808673ffffffffffffffffffffffffffffffffffffffff1673ffffffffffffffffffffffffffffffffffffffff1681526020019081526020016000206000016000808773ffffffffffffffffffffffffffffffffffffffff1673ffffffffffffffffffffffffffffffffffffffff168152602001908152602001600020600101546000808873ffffffffffffffffffffffffffffffffffffffff1673ffffffffffffffffffffffffffffffffffffffff168152602001908152602001600020600301828054600181600116156101000203166002900480601f016020809104026020016040519081016040528092919081815260200182805460018160011615610100020316600290048015611e055780601f10611dda57610100808354040283529160200191611e05565b820191906000526020600020905b815481529060010190602001808311611de857829003601f168201915b50505050509250808054600181600116156101000203166002900480601f016020809104026020016040519081016040528092919081815260200182805460018160011615610100020316600290048015611ea15780601f10611e7657610100808354040283529160200191611ea1565b820191906000526020600020905b815481529060010190602001808311611e8457829003601f168201915b5050505050905093509350935050611eb9565b600080fd5b9193909250565b60028181548110611ecd57fe5b906000526020600020016000915054906101000a900473ffffffffffffffffffffffffffffffffffffffff1681565b606060008060008473ffffffffffffffffffffffffffffffffffffffff1673ffffffffffffffffffffffffffffffffffffffff168152602001908152602001600020600201905080805480602002602001604051908101604052809291908181526020018280548015611fc457602002820191906000526020600020905b8160009054906101000a900473ffffffffffffffffffffffffffffffffffffffff1673ffffffffffffffffffffffffffffffffffffffff1681526020019060010190808311611f7a575b5050505050915050919050565b60606000600160008473ffffffffffffffffffffffffffffffffffffffff1673ffffffffffffffffffffffffffffffffffffffff16815260200190815260200160002060020190508080548060200260200160405190810160405280929190818152602001828054801561209a57602002820191906000526020600020905b8160009054906101000a900473ffffffffffffffffffffffffffffffffffffffff1673ffffffffffffffffffffffffffffffffffffffff1681526020019060010190808311612050575b5050505050915050919050565b60003390506120b4612b08565b84816000018190525083816020018181525050828160600181905250806000808473ffffffffffffffffffffffffffffffffffffffff1673ffffffffffffffffffffffffffffffffffffffff168152602001908152602001600020600082015181600001908051906020019061212b9291906129fe565b50602082015181600101556040820151816002019080519060200190612152929190612a7e565b50606082015181600301908051906020019061216f9291906129fe565b5090505060028290806001815401808255809150509060018203906000526020600020016000909192909190916101000a81548173ffffffffffffffffffffffffffffffffffffffff021916908373ffffffffffffffffffffffffffffffffffffffff160217905550508173ffffffffffffffffffffffffffffffffffffffff167fc85b128388b9c331a2a5485dce4cd0f3db9f7c279d327ce95d6d39d6c94644c7866040518080602001828103825283818151815260200191508051906020019080838360005b83811015612252578082015181840152602081019050612237565b50505050905090810190601f16801561227f5780820380516001836020036101000a031916815260200191505b509250505060405180910390a25050505050565b600073ffffffffffffffffffffffffffffffffffffffff168273ffffffffffffffffffffffffffffffffffffffff161415612336576040517f08c379a000000000000000000000000000000000000000000000000000000000815260040180806020018281038252600f8152602001807f496e76616c69642061646472657373000000000000000000000000000000000081525060200191505060405180910390fd5b600073ffffffffffffffffffffffffffffffffffffffff168173ffffffffffffffffffffffffffffffffffffffff1614156123d9576040517f08c379a000000000000000000000000000000000000000000000000000000000815260040180806020018281038252600f8152602001807f496e76616c69642061646472657373000000000000000000000000000000000081525060200191505060405180910390fd5b612424600160008373ffffffffffffffffffffffffffffffffffffffff1673ffffffffffffffffffffffffffffffffffffffff16815260200190815260200160002060020183612719565b5061246f6000808473ffffffffffffffffffffffffffffffffffffffff1673ffffffffffffffffffffffffffffffffffffffff16815260200190815260200160002060020182612719565b508073ffffffffffffffffffffffffffffffffffffffff168273ffffffffffffffffffffffffffffffffffffffff167f825c8be24eb0df19500f63e86c29e7d0d951e73056b889b891d85e40938d9b6e60405160405180910390a35050565b600073ffffffffffffffffffffffffffffffffffffffff168173ffffffffffffffffffffffffffffffffffffffff161415612571576040517f08c379a000000000000000000000000000000000000000000000000000000000815260040180806020018281038252600f8152602001807f496e76616c69642061646472657373000000000000000000000000000000000081525060200191505060405180910390fd5b600160008273ffffffffffffffffffffffffffffffffffffffff1673ffffffffffffffffffffffffffffffffffffffff1681526020019081526020016000206002013390806001815401808255809150509060018203906000526020600020016000909192909190916101000a81548173ffffffffffffffffffffffffffffffffffffffff021916908373ffffffffffffffffffffffffffffffffffffffff160217905550506000803373ffffffffffffffffffffffffffffffffffffffff1673ffffffffffffffffffffffffffffffffffffffff1681526020019081526020016000206002018190806001815401808255809150509060018203906000526020600020016000909192909190916101000a81548173ffffffffffffffffffffffffffffffffffffffff021916908373ffffffffffffffffffffffffffffffffffffffff160217905550508073ffffffffffffffffffffffffffffffffffffffff163373ffffffffffffffffffffffffffffffffffffffff167f9f520b3bfc56d06f7065d10b4683b3f57ac8895d5026cd176dee95ce1454cb8d60405160405180910390a350565b60008060009050600080905060008090505b85805490508110156127b6578473ffffffffffffffffffffffffffffffffffffffff1686828154811061275a57fe5b9060005260206000200160009054906101000a900473ffffffffffffffffffffffffffffffffffffffff1673ffffffffffffffffffffffffffffffffffffffff1614156127a957600192508091505b808060010191505061272b565b50816127c157600080fd5b6127cb858261282d565b505092915050565b806000808473ffffffffffffffffffffffffffffffffffffffff1673ffffffffffffffffffffffffffffffffffffffff1681526020019081526020016000206003019080519060200190612828929190612b30565b505050565b818054905081106128a6576040517f08c379a000000000000000000000000000000000000000000000000000000000815260040180806020018281038252600d8152602001807f496e76616c696420696e6465780000000000000000000000000000000000000081525060200191505060405180910390fd5b6001828054905014156128f1578181815481106128bf57fe5b9060005260206000200160006101000a81549073ffffffffffffffffffffffffffffffffffffffff02191690556129c4565b8160018380549050038154811061290457fe5b9060005260206000200160009054906101000a900473ffffffffffffffffffffffffffffffffffffffff1682828154811061293b57fe5b9060005260206000200160006101000a81548173ffffffffffffffffffffffffffffffffffffffff021916908373ffffffffffffffffffffffffffffffffffffffff1602179055508160018380549050038154811061299657fe5b9060005260206000200160006101000a81549073ffffffffffffffffffffffffffffffffffffffff02191690555b818054809190600190036129d89190612bb0565b505050565b60405180606001604052806060815260200160008152602001606081525090565b828054600181600116156101000203166002900490600052602060002090601f016020900481019282601f10612a3f57805160ff1916838001178555612a6d565b82800160010185558215612a6d579182015b82811115612a6c578251825591602001919060010190612a51565b5b509050612a7a9190612bdc565b5090565b828054828255906000526020600020908101928215612af7579160200282015b82811115612af65782518260006101000a81548173ffffffffffffffffffffffffffffffffffffffff021916908373ffffffffffffffffffffffffffffffffffffffff16021790555091602001919060010190612a9e565b5b509050612b049190612c01565b5090565b6040518060800160405280606081526020016000815260200160608152602001606081525090565b828054600181600116156101000203166002900490600052602060002090601f016020900481019282601f10612b7157805160ff1916838001178555612b9f565b82800160010185558215612b9f579182015b82811115612b9e578251825591602001919060010190612b83565b5b509050612bac9190612bdc565b5090565b815481835581811115612bd757818360005260206000209182019101612bd69190612bdc565b5b505050565b612bfe91905b80821115612bfa576000816000905550600101612be2565b5090565b90565b612c4191905b80821115612c3d57600081816101000a81549073ffffffffffffffffffffffffffffffffffffffff021916905550600101612c07565b5090565b9056fea265627a7a72315820cd872f7084f855b21b890a8b4eb0a28fca20353f9176a4e91fd2839d8a344f9864736f6c63430005100032",
  "source": "pragma solidity ^0.5.16;\r\n//import \"./InfoLib.sol\";\r\ncontract infecDisInfo {\r\n\r\n    event PatientRegistered(address indexed patientAddr, string name);\r\n    event DoctorRegistered(address indexed doctorAddr, string name);\r\n    event AccessGranted(address indexed patientAddr, address indexed doctorAddr);\r\n    event AccessRevoked(address indexed patientAddr, address indexed doctorAddr);\r\n    event RecordUploaded(address indexed patientAddr, string fileHash);\r\n\r\n    struct patientInfo{\r\n        string name;\r\n        uint contactNum;\r\n        address[] docAccessList;\r\n        string infecRecords;\r\n    }\r\n    struct docterInfo{\r\n        string name;\r\n        uint contactNum;\r\n        //uint designation;\r\n        address[] userAccessList;\r\n    }\r\n\r\n    mapping(address => patientInfo) patientInfoMap;\r\n    mapping(address => docterInfo) docterInfoMap;\r\n    address[] public patientList;\r\n    address[] public docterList;\r\n    \r\n    \r\n    function register(string memory _regisName, uint _regisContactNum, uint _regisType, string memory _fileHash) public{\r\n        require(msg.sender != address(0), \"Invalid address\");\r\n        if(_regisType == 0){\r\n            addPatient(_regisName, _regisContactNum, _fileHash);\r\n        }\r\n        else if(_regisType == 1){\r\n            addDocter(_regisName, _regisContactNum);\r\n        }\r\n        else revert();\r\n    }\r\n\r\n    function addPatient (string memory _regisName, uint _regisContactNum, string memory _fileHash) public {\r\n        address senderAddress = msg.sender;\r\n        patientInfo memory patientData;\r\n        patientData.name = _regisName;\r\n        patientData.contactNum = _regisContactNum;\r\n        patientData.infecRecords = _fileHash;\r\n        patientInfoMap[senderAddress] = patientData;\r\n        patientList.push(senderAddress);\r\n        emit PatientRegistered(senderAddress, _regisName);\r\n    }\r\n\r\n    function addDocter (string memory _regisName, uint _regisContactNum) public {\r\n        address senderAddress = msg.sender;\r\n        docterInfo memory docterData;\r\n        docterData.name = _regisName;\r\n        docterData.contactNum = _regisContactNum;\r\n        docterInfoMap[senderAddress] = docterData;\r\n        docterList.push(senderAddress);\r\n        emit DoctorRegistered(senderAddress, _regisName);\r\n    }\r\n\r\n    function getPatientInfo(address patientAddr) public view returns(string memory, uint, string memory){//\r\n        require(patientAddr != address(0), \"Invalid address\");\r\n        //return patientInfoMap[patientAddr];        \r\n        return (patientInfoMap[msg.sender].name, patientInfoMap[msg.sender].contactNum, patientInfoMap[msg.sender].infecRecords);\r\n    }\r\n\r\n    function getPatientInfoDoc(address patientAddr) public view returns(string memory , uint, string memory){//\r\n        require(patientAddr != address(0), \"Invalid address\");\r\n        bool permission = false;\r\n        for (uint i = 0; i < docterInfoMap[msg.sender].userAccessList.length; i++){\r\n            if (docterInfoMap[msg.sender].userAccessList[i] == patientAddr) permission = true;\r\n        }\r\n        if (permission == true){\r\n            return (patientInfoMap[patientAddr].name, patientInfoMap[patientAddr].contactNum, patientInfoMap[patientAddr].infecRecords);\r\n        }\r\n        else revert();\r\n    }\r\n\r\n    function getDocterInfo(address docterAddr) public view returns(string memory , uint){\r\n        require(docterAddr != address(0), \"Invalid address\");\r\n        return (docterInfoMap[docterAddr].name, docterInfoMap[docterAddr].contactNum);\r\n    }\r\n\r\n    function accessPermitGrant(address docterAddr) public{\r\n        require(docterAddr != address(0), \"Invalid address\");\r\n        docterInfoMap[docterAddr].userAccessList.push(msg.sender);//-1???\r\n        patientInfoMap[msg.sender].docAccessList.push(docterAddr);//-1???\r\n        emit AccessGranted(msg.sender, docterAddr);\r\n    }\r\n\r\n    function getPatientList() public view returns(address[] memory ){//\r\n    //\r\n        return patientList;\r\n    }\r\n\r\n    function getDocterList() public view returns(address[] memory ){//\r\n    ////\r\n        return docterList;\r\n    }\r\n\r\n    function recordUpload(address patientAddr, string memory _fileHash) public{\r\n        require(patientAddr != address(0), \"Invalid address\");\r\n        bool permission = false;\r\n        for (uint i = 0; i < docterInfoMap[msg.sender].userAccessList.length; i++){\r\n            if (docterInfoMap[msg.sender].userAccessList[i] == patientAddr) permission = true;\r\n        }\r\n        if (permission == true){\r\n            setFileHash(patientAddr, _fileHash);\r\n        }\r\n        else revert();\r\n        emit RecordUploaded(patientAddr, _fileHash);\r\n    }\r\n\r\n    function getFileHash(address patientAddr) public view returns(string memory ){//\r\n    // patientInfo \r\n        return patientInfoMap[patientAddr].infecRecords;\r\n        //return patientInfoMap[patientAddr].infecRecords;\r\n    }\r\n\r\n    function setFileHash(address patientAddr, string memory _filehash) internal {//\r\n    // patientInfo \r\n        patientInfoMap[patientAddr].infecRecords = _filehash;\r\n        //patientInfo[patientAddr].infecRecords = _filehash;\r\n    }\r\n\r\n    function accessPermitRevoke(address patientAddr, address docterAddr) public{\r\n        require(patientAddr != address(0), \"Invalid address\");\r\n        require(docterAddr != address(0), \"Invalid address\");\r\n        accessPermitArrayCheck(docterInfoMap[docterAddr].userAccessList, patientAddr);\r\n        accessPermitArrayCheck(patientInfoMap[patientAddr].docAccessList, docterAddr);\r\n        emit AccessRevoked(patientAddr, docterAddr);\r\n    }\r\n\r\n    function accessPermitRevokeForPatient(address docterAddr) public{\r\n        require(msg.sender != address(0), \"Invalid address\");\r\n        require(docterAddr != address(0), \"Invalid address\");\r\n        accessPermitArrayCheck(docterInfoMap[docterAddr].userAccessList, msg.sender);\r\n        accessPermitArrayCheck(patientInfoMap[msg.sender].docAccessList, docterAddr);\r\n    }\r\n\r\n    function accessPermitArrayCheck(address[] storage accessList, address addr) internal returns(uint) {\r\n        // \r\n        // \r\n        bool check = false;\r\n        uint del_index = 0;\r\n        for (uint i = 0; i < accessList.length; i++) {\r\n            if (accessList[i] == addr) {\r\n                check = true;\r\n                del_index = i;\r\n            }\r\n        }\r\n        if (!check) revert();\r\n        else {\r\n            accessPermitRemoval(accessList, del_index);\r\n        }\r\n    }\r\n\r\n    function accessPermitRemoval(address[] storage accessList, uint index) private {\r\n        require(index < accessList.length, \"Invalid index\");\r\n        if (accessList.length == 1) {\r\n            delete accessList[index];\r\n        } else {\r\n            accessList[index] = accessList[accessList.length - 1];\r\n            delete accessList[accessList.length - 1];\r\n        }\r\n        accessList.length--;\r\n    }\r\n    //\r\n    \r\n    function patientAccessPermitCheck(address patientAddr) public view returns (address[] memory )\r\n    { //\r\n    // patientInfo \r\n        address[] storage docAccessListAddr = patientInfoMap[patientAddr].docAccessList;\r\n        return docAccessListAddr;\r\n    }\r\n\r\n    function docterAccessPermitCheck(address docterAddr) public view returns (address[] memory )\r\n    { //\r\n    // healthcareInfo \r\n        address[] storage userAccessListAddr = docterInfoMap[docterAddr].userAccessList;\r\n        return userAccessListAddr;\r\n    }\r\n}",
  "sourcePath": "D:\\ComputerScience\\FinalProject\\Code\\ep1\\contracts\\infecDisInfo.sol",
  "compiler": {
    "name": "solc",
    "version": "0.5.16+commit.9c3226ce.Emscripten.clang"
  },
  "schemaVersion": "3.4.14",
  "updatedAt": "2023-07-24T14:26:16.448Z",
  "networkType": "ethereum",
  "devdoc": {
    "methods": {}
  },
  "userdoc": {
    "methods": {}
  }
}